:100000000C9430000C944A000C944A000C944A0062
:100010000C944A000C944A000C944A000C944A0038
:100020000C944A000C944A000C944A000C944A0028
:100030000C944A000C944A000C944A000C944A0018
:100040000C944A000C944A000C944A000C944A0008
:100050000C944A000C944A000C944A000C944A00F8
:1000600011241FBECFEFDFE0DEBFCDBF10E0A0E662
:10007000B0E0E4EFF6E00FEF03950BBF04C0D895B6
:100080000D923196C8F3AE37B107C9F70E9403034A
:100090000C9478030C9400006FEF80E00E94D7026C
:1000A00041E067E080E00C9465028A3008F0089532
:1000B000E82FF0E0E05AFF4F608180E00C94C70227
:1000C00041E067E080E00C941F0240E067E080E0E0
:1000D0000C941F02CF93DF930F92CDB7DEB78983C5
:1000E00041E061E082E00E941F02698180E00E949D
:1000F000C70241E060E082E00E941F028FE39FE1BF
:100100000197F1F700C0000040E060E082E00E944B
:100110001F028FE39FE10197F1F700C000000F90ED
:10012000DF91CF910895CF93DF930F92CDB7DEB7D4
:10013000898340E061E082E00E941F02698180E0E3
:100140000E94C70241E060E082E00E941F028FE34C
:100150009FE10197F1F700C0000040E060E082E01D
:100160000E941F028FE39FE10197F1F700C000009A
:100170000F90DF91CF91089561E080E00E94D70257
:1001800041E060E082E00E94650241E061E082E0DF
:100190000E9465022FEF89EF90E02150804090404F
:1001A000E1F700C0000088E30E9493008FE19EE425
:1001B0000197F1F700C0000088E30E9493008FE1EF
:1001C0009EE40197F1F700C0000088E30E949300CD
:1001D0008FE19EE40197F1F700C0000088E00E94E3
:1001E00093008FE19EE40197F1F700C0000081E0E9
:1001F0000E9493008FE19EE40197F1F700C0000098
:1002000086E00E9493008FE19EE40197F1F700C021
:1002100000008CE00E9493008FE19EE40197F1F7CB
:1002200000C000000895CF93DF93C82FD92F2097E7
:1002300049F08881811531F021960E946A008991E8
:100240008115D9F7DF91CF9108954F925F926F9208
:100250007F928F929F92AF92BF92CF92DF92EF9256
:10026000FF920F931F93CF93DF93CDB7DEB72A97FB
:100270000FB6F894DEBF0FBECDBFC62ED72EE82E28
:10028000F92EC114D104E104F1040CF454C009F4B2
:100290005EC08C2E9D2E8FEF881A980AA82CB92C40
:1002A00000E010E08AE0482E512C612C712C6C2D5E
:1002B0007D2D8E2D9F2D242D352D462D572D0E94C1
:1002C0003203605DEA2DFB2D6193AE2EBF2EC22E50
:1002D000D32EE42EF52E802F912F0F5F1F4FC114C8
:1002E000D104E104F10419F7082D192D0F5F1F4FF8
:1002F000080F191FE02FF12F82910E2F1F2F0E9440
:100300006A0008151905B1F72A960FB6F894DEBFF2
:100310000FBECDBFDF91CF911F910F91FF90EF9056
:10032000DF90CF90BF90AF909F908F907F906F9015
:100330005F904F9008958DE20E946A00F094E094DF
:10034000D094C094C11CD11CE11CF11CA2CF80E34D
:100350002A960FB6F894DEBF0FBECDBFDF91CF91C6
:100360001F910F91FF90EF90DF90CF90BF90AF90D3
:100370009F908F907F906F905F904F900C946A0049
:1003800091E0611509F490E09295990F990F907C96
:10039000890F80680C94930081E00C94930082E0B4
:1003A0000C9493000F931F93CF93DF9300D000D052
:1003B0000F92CDB7DEB789836C837D834A832B830D
:1003C000672B11F0883050F00F900F900F900F9026
:1003D0000F90DF91CF911F910F910895880F880F93
:1003E000880F80640E9493000C811D81085F1F4F5D
:1003F000EC81FD818191EC83FD830E946A008C81F8
:100400009D8180179107A1F781E09B819115A9F04B
:100410008295880F880F807CEA818E0F80680E9409
:10042000930089810F900F900F900F900F90DF91A4
:10043000CF911F910F910C946A0080E0E9CF683052
:10044000F0F4823049F170F48115D1F081E001C0FF
:10045000880F6A95EAF798B34130A1F18095892316
:1004600088BB0895833021F581E001C0880F6A952B
:10047000EAF792B34130E9F08095892382BB089571
:1004800081E001C0880F6A95EAF79BB34130B9F06B
:10049000809589238BBB089581E001C0880F6A9500
:1004A000EAF795B3413041F08095892385BB0895E3
:1004B0000895892B82BB0895892B85BB0895892BCC
:1004C0008BBB0895892B88BB08956830F0F4823087
:1004D00049F170F48115D1F081E001C0880F6A956F
:1004E000EAF797B34130A1F18095892387BB08953E
:1004F000833021F581E001C0880F6A95EAF791B356
:100500004130E9F08095892381BB089581E001C0E5
:10051000880F6A95EAF79AB34130B9F0809589233C
:100520008ABB089581E001C0880F6A95EAF794B309
:10053000413041F08095892384BB08950895892B2B
:1005400081BB0895892B84BB0895892B8ABB0895AC
:10055000892B87BB08956830A0F48230A9F020F47D
:10056000811581F086B303C0833081F480B390E0BD
:1005700002C0959587956A95E2F78170E42FF52F73
:100580008083089589B3F3CF83B3F1CF0895823088
:1005900049F020F4811541F068BB0895833031F4AF
:1005A00062BB089565BB08956BBB089508958230C2
:1005B00049F020F4811541F067BB0895833031F490
:1005C00061BB089564BB08956ABB089508958230A5
:1005D00079F038F4811589F086B3E62FF72F808300
:1005E0000895833079F480B3E62FF72F8083089540
:1005F00083B3E62FF72F8083089589B3E62FF72F73
:10060000808308950895CDB7DEB764970FB6F89448
:10061000DEBF0FBECDBF0E94BC008DE0EAE6F0E079
:10062000AC2FBD2F119601900D928A95E1F7EC2F1A
:10063000FD2F3E9687E0AE2FBF2F1D928A95E9F7DA
:100640000C2F1D2F0E5F1F4F8DE40E946A008FE557
:100650000E946A00E02FF12F81910E2F1F2F81152C
:10066000A1F7FFCF052E97FB1EF400940E944903CB
:1006700057FD07D00E94510307FC03D04EF40C94A1
:10068000490350954095309521953F4F4F4F5F4F0F
:10069000089590958095709561957F4F8F4F9F4FEE
:1006A0000895A1E21A2EAA1BBB1BEA2FFB2F0DC037
:1006B000AA1FBB1FEE1FFF1FA217B307E407F50712
:1006C00020F0A21BB30BE40BF50B661F771F881FEE
:1006D000991F1A9469F76095709580959095262FCB
:1006E000372F482F592F6A2F7B2F8E2F9F2F08953A
:0406F000F894FFCFAC
:1006F400C0F9A4B0999282F880904D6F68616D6DD5
:0E0704006564446961610000000000000000AF
:00000001FF
