:100000000C942A000C9447000C9447000C94470071
:100010000C9447000C9447000C9447000C94470044
:100020000C9447000C9447000C9447000C940F0468
:100030000C9447000C9447000C9447000C94470024
:100040000C9447000C9447000C9447000C94470014
:100050000C94470011241FBECFE5D8E0DEBFCDBF12
:1000600010E0A0E6B0E0E0EEFAE002C005900D92EC
:10007000AA37B107D9F720E0AAE7B0E001C01D9286
:10008000AC37B207E1F70E9427040C946E050C947C
:1000900000006FEF80E00E94CB0341E067E080E06A
:1000A0000C945A038A3008F00895E82FF0E0EA59DA
:1000B000FF4F608180E00C94BB0341E067E080E08B
:1000C0000C94140340E067E080E00C941403CF9399
:1000D000DF93C3E6D0E0699141E083E00E945A03D8
:1000E000FE0141E0629183E00E94140380E0C63685
:1000F000D80789F7C0E6D0E0699140E083E00E942C
:100100005A03FE0141E0629183E00E94140380E003
:10011000C336D80789F7DF91CF910895AF92BF9288
:10012000CF92DF92EF92FF920F931F93CF93DF93C3
:10013000CDB7DEB72A970FB6F894DEBF0FBECDBF9E
:1001400089E0E0E7F0E0DE01119601900D928A95DA
:10015000E1F781E08A8743E6A42E40E0B42EC12C6B
:10016000D12C40E0F501608183E00E94140330E669
:10017000E32E30E0F32E00E010E0F70161917F0103
:10018000AE01465F5F4F83E00E94A0038A85811520
:1001900041F10F5F1F4F0330110579F7FFEFAF1AE1
:1001A000BF0AF50141E0629183E00E9414038FEFE2
:1001B000C81AD80A93E0C916D10499F6F12C8F2DEC
:1001C0002A960FB6F894DEBF0FBECDBFDF91CF9158
:1001D0001F910F91FF90EF90DF90CF90BF90AF9065
:1001E00008958FE59AEE0197F1F700C00000AE0187
:1001F000465F5F4FF701629183E00E94A0038A850A
:100200008111C7CFC801880F991F800F911FFE0170
:100210003196E80FF91FEC0DFD1DF080005A1F4FBD
:10022000AE01465F5F4FF801608183E00E94A0034A
:100230008A858115A9F3F601ED59FF4F41E06081F0
:1002400083E00E941403BBCFCF93DF930F92CDB70F
:10025000DEB7898341E061E082E00E941403698196
:1002600081E00E94BB0341E060E082E00E94140351
:100270008FE99FE00197F1F700C0000040E060E0E7
:1002800082E00E9414038FE99FE00197F1F700C01C
:1002900000000F90DF91CF910895CF93DF930F92DD
:1002A000CDB7DEB7898340E061E082E00E941403AD
:1002B000698181E00E94BB0341E060E082E00E942E
:1002C00014038FE99FE00197F1F700C0000040E0C0
:1002D00060E082E00E9414038FE99FE00197F1F74C
:1002E00000C000000F90DF91CF91089561E081E0A0
:1002F0000E94CB0341E060E082E00E945A0341E0AB
:1003000061E082E00E945A038FE39CE90197F1F7D4
:1003100000C0000088E30E944D018FE097E2019742
:10032000F1F700C0000088E30E944D018FE097E2E2
:100330000197F1F700C0000088E30E944D018FE0B3
:1003400097E20197F1F700C0000088E00E944D019C
:100350008FE097E20197F1F700C0000081E00E9472
:100360004D018FE097E20197F1F700C0000086E0B1
:100370000E944D018FE097E20197F1F700C0000065
:100380008CE00E944D018FE097E20197F1F700C0E9
:1003900000000895CF93DF93EC01892B49F0888109
:1003A000811531F021960E94240189918111FBCFA2
:1003B000DF91CF9108954F925F926F927F928F92CB
:1003C0009F92AF92BF92CF92DF92EF92FF920F93E4
:1003D0001F93CF93DF93CDB7DEB72A970FB6F8946C
:1003E000DEBF0FBECDBF6B017C01C114D104E1049F
:1003F000F1040CF445C009F44FC04E018FEF881A88
:10040000980A540100E010E038018AE0482E512C8F
:10041000B601C7019201A3010E943204605DF5019B
:1004200061935F0169017A01C8010F5F1F4FC11419
:10043000D104E104F10461F784010F5F1F4F080F3D
:10044000191FF80182918F010E94240108151905D6
:10045000C1F72A960FB6F894DEBF0FBECDBFDF916D
:10046000CF911F910F91FF90EF90DF90CF90BF90B1
:10047000AF909F908F907F906F905F904F90089576
:100480008DE20E942401F094E094D094C094C11CA9
:10049000D11CE11CF11CB1CF80E32A960FB6F89471
:1004A000DEBF0FBECDBFDF91CF911F910F91FF90A7
:1004B000EF90DF90CF90BF90AF909F908F907F9004
:1004C0006F905F904F900C94240191E0611101C0F6
:1004D00090E09295990F990F907C890F80680C9409
:1004E0004D0181E00C944D0182E00C944D010F937D
:1004F0001F93CF93DF9300D000D00F92CDB7DEB71C
:1005000089836C837D834A832B83672B11F088302A
:1005100050F00F900F900F900F900F90DF91CF91B0
:100520001F910F910895880F880F880F80640E9493
:100530004D010C811D81085F1F4FEC81FD81819170
:10054000EC83FD830E9424018C819D81801791079B
:10055000A1F781E09B819115A9F08295880F880F02
:10056000807CEA818E0F80680E944D0189810F9006
:100570000F900F900F900F90DF91CF911F910F91DF
:100580000C94240180E0E9CF3E9A3F983D9835983D
:1005900086B1887F86B986B1866086B9379A089514
:1005A000379A089537980895813220F561157105BD
:1005B00021F197B1907E97B997B1982B97B9369A58
:1005C000349BFECF349A3D9B0FC084B195B100247B
:1005D000880F991F001C880F991F001C892F902DD0
:1005E000FB0180839183089584B195B1FB018083E1
:1005F0009183089580E090E0089585E090E008956B
:1006000008950895BC0180E090E00E94730420E00A
:1006100030E040EA50E40E94B00420E030E040E8DE
:100620005AE30E94B00408956830F0F4823049F132
:1006300070F48115D1F081E001C0880F6A95EAF766
:1006400098B34130A1F18095892388BB0895833008
:1006500021F581E001C0880F6A95EAF792B3413035
:10066000E9F08095892382BB089581E001C0880F5D
:100670006A95EAF79BB34130B9F0809589238BBB2B
:10068000089581E001C0880F6A95EAF795B341307B
:1006900041F08095892385BB08950895892B82BBFD
:1006A0000895892B85BB0895892B8BBB0895892BD1
:1006B00088BB08956830F0F4823049F170F48115F8
:1006C000D1F081E001C0880F6A95EAF797B3413015
:1006D000A1F18095892387BB0895833021F581E0BE
:1006E00001C0880F6A95EAF791B34130E9F080952F
:1006F000892381BB089581E001C0880F6A95EAF7DC
:100700009AB34130B9F0809589238ABB089581E07E
:1007100001C0880F6A95EAF794B3413041F08095A3
:10072000892384BB08950895892B81BB0895892B63
:1007300084BB0895892B8ABB0895892B87BB0895B4
:10074000683098F48230A1F020F4811579F086B3F6
:1007500003C0833079F480B390E002C0959587950B
:100760006A95E2F78170FA018083089589B3F4CF26
:1007700083B3F2CF0895823049F020F4811541F01F
:1007800068BB0895833031F462BB089565BB08955A
:100790006BBB08950895823049F020F4811541F033
:1007A00067BB0895833031F461BB089564BB08953D
:1007B0006ABB08950895823069F030F4811571F0B4
:1007C00086B3FB0180830895833061F480B3FB011D
:1007D0008083089583B3FB018083089589B3FB016F
:1007E00080830895089583B7877899B7916099BFFA
:1007F000816083BF8FB780688FBF81E00895909339
:100800007B0080937A0080917A0090917B00892B05
:10081000D1F781E008958CBF81E0089508958F930A
:100820008FB78F939F9380917A0090917B00009770
:1008300049F080917A0090917B00019790937B0022
:1008400080937A009F918F918FBF8F9118950E940E
:10085000C4026FEF81E00E94CB036FEF81E00E9442
:10086000BB03FFCF052E97FB1EF400940E944904A2
:1008700057FD07D00E94510407FC03D04EF40C949E
:10088000490450954095309521953F4F4F4F5F4F0C
:10089000089590958095709561957F4F8F4F9F4FEC
:1008A0000895A1E21A2EAA1BBB1BFD010DC0AA1FB1
:1008B000BB1FEE1FFF1FA217B307E407F50720F0C9
:1008C000A21BB30BE40BF50B661F771F881F991F44
:1008D0001A9469F760957095809590959B01AC018D
:1008E000BD01CF010895E89409C097FB3EF49095AF
:1008F0008095709561957F4F8F4F9F4F9923A9F0F9
:10090000F92F96E9BB279395F69587957795679587
:10091000B795F111F8CFFAF4BB0F11F460FF1BC0CB
:100920006F5F7F4F8F4F9F4F16C0882311F096E95E
:1009300011C0772321F09EE8872F762F05C066230C
:1009400071F096E8862F70E060E02AF09A95660FC5
:10095000771F881FDAF7880F9695879597F908957E
:100960000E94C3040C9434050E94260538F00E94AE
:100970002D0520F0952311F00C941D050C942305F2
:1009800011240C9468050E94450570F3959FC1F3EE
:10099000950F50E0551F629FF001729FBB27F00D2D
:1009A000B11D639FAA27F00DB11DAA1F649F662782
:1009B000B00DA11D661F829F2227B00DA11D621FD1
:1009C000739FB00DA11D621F839FA00D611D221F8B
:1009D000749F3327A00D611D231F849F600D211D6F
:1009E000822F762F6A2F11249F5750409AF0F1F0F2
:1009F00088234AF0EE0FFF1FBB1F661F771F881F5B
:100A000091505040A9F79E3F510580F00C941D0570
:100A10000C9468055F3FE4F3983ED4F38695779590
:100A20006795B795F795E7959F5FC1F7FE2B880F00
:100A3000911D9695879597F9089597F99F6780E896
:100A400070E060E008959FEF80EC089500240A9420
:100A50001616170618060906089500240A94121699
:100A60001306140605060895092E0394000C11F4CC
:100A7000882352F0BB0F40F4BF2B11F460FF04C079
:100A80006F5F7F4F8F4F9F4F089557FD9058440FD2
:100A9000551F59F05F3F71F04795880F97FB991FDD
:100AA00061F09F3F79F0879508951216130614069A
:100AB000551FF2CF4695F1DF08C016161706180627
:100AC000991FF1CF86957105610508940895E89402
:100AD000BB2766277727CB0197F90895F894FFCFB6
:100AE000000102040506C0F9A4B0999282F8809032
:0A0AF000313233343536373839001F
:00000001FF
