:100000000C942A000C949F040C94C8040C94F104E2
:100010000C9447000C9447000C9447000C94470044
:100020000C9447000C941D090C9424080C94660849
:100030000C9447000C9447000C9447000C94470024
:100040000C9447000C9447000C9447000C94470014
:100050000C94470011241FBECFE5D8E0DEBFCDBF12
:1000600010E0A0E6B0E0E2E1F6E102C005900D92FA
:10007000AA37B107D9F720E0AAE7B0E001C01D9286
:10008000A639B207E1F70E946B090C94FF0A0C94A1
:1000900000006FEF80E00E94EA0341E067E080E04B
:1000A0000C9479038A3008F00895E82FF0E0EA59BB
:1000B000FF4F608180E00C94DA0341E067E080E06C
:1000C0000C94330340E067E080E00C943303CF935B
:1000D000DF93C3E6D0E0699141E083E00E947903B9
:1000E000FE0141E0629183E00E94330380E0C63666
:1000F000D80789F7C0E6D0E0699140E083E00E942C
:100100007903FE0141E0629183E00E94330380E0C5
:10011000C336D80789F7DF91CF910895AF92BF9288
:10012000CF92DF92EF92FF920F931F93CF93DF93C3
:10013000CDB7DEB72A970FB6F894DEBF0FBECDBF9E
:1001400089E0E0E7F0E0DE01119601900D928A95DA
:10015000E1F781E08A8743E6A42E40E0B42EC12C6B
:10016000D12C40E0F501608183E00E94330330E64A
:10017000E32E30E0F32E00E010E0F70161917F0103
:10018000AE01465F5F4F83E00E94BF038A85811501
:1001900041F10F5F1F4F0330110579F7FFEFAF1AE1
:1001A000BF0AF50141E0629183E00E9433038FEFC3
:1001B000C81AD80A93E0C916D10499F6F12C8F2DEC
:1001C0002A960FB6F894DEBF0FBECDBFDF91CF9158
:1001D0001F910F91FF90EF90DF90CF90BF90AF9065
:1001E00008958FE59AEE0197F1F700C00000AE0187
:1001F000465F5F4FF701629183E00E94BF038A85EB
:100200008111C7CFC801880F991F800F911FFE0170
:100210003196E80FF91FEC0DFD1DF080005A1F4FBD
:10022000AE01465F5F4FF801608183E00E94BF032B
:100230008A858115A9F3F601ED59FF4F41E06081F0
:1002400083E00E943303BBCFCF93DF930F92CDB7F0
:10025000DEB7898341E061E082E00E943303698177
:1002600081E00E94DA0341E060E082E00E94330313
:100270008FE99FE00197F1F700C0000040E060E0E7
:1002800082E00E9433038FE99FE00197F1F700C0FD
:1002900000000F90DF91CF910895CF93DF930F92DD
:1002A000CDB7DEB7898340E061E082E00E9433038E
:1002B000698181E00E94DA0341E060E082E00E940F
:1002C00033038FE99FE00197F1F700C0000040E0A1
:1002D00060E082E00E9433038FE99FE00197F1F72D
:1002E00000C000000F90DF91CF91089561E081E0A0
:1002F0000E94EA0341E060E082E00E94790341E06D
:1003000061E082E00E9479038FE39CE90197F1F7B5
:1003100000C0000088E30E944D018FE097E2019742
:10032000F1F700C0000088E30E944D018FE097E2E2
:100330000197F1F700C0000088E30E944D018FE0B3
:1003400097E20197F1F700C0000088E00E944D019C
:100350008FE097E20197F1F700C0000081E00E9472
:100360004D018FE097E20197F1F700C0000086E0B1
:100370000E944D018FE097E20197F1F700C0000065
:100380008CE00E944D018FE097E20197F1F700C0E9
:1003900000000895CF93DF93EC01892B49F0888109
:1003A000811531F021960E94240189918111FBCFA2
:1003B000DF91CF9108954F925F926F927F928F92CB
:1003C0009F92AF92BF92CF92DF92EF92FF920F93E4
:1003D0001F93CF93DF93CDB7DEB72A970FB6F8946C
:1003E000DEBF0FBECDBF6B017C01C114D104E1049F
:1003F000F1040CF445C009F44FC04E018FEF881A88
:10040000980A540100E010E038018AE0482E512C8F
:10041000B601C7019201A3010E94C509605DF50103
:1004200061935F0169017A01C8010F5F1F4FC11419
:10043000D104E104F10461F784010F5F1F4F080F3D
:10044000191FF80182918F010E94240108151905D6
:10045000C1F72A960FB6F894DEBF0FBECDBFDF916D
:10046000CF911F910F91FF90EF90DF90CF90BF90B1
:10047000AF909F908F907F906F905F904F90089576
:100480008DE20E942401F094E094D094C094C11CA9
:10049000D11CE11CF11CB1CF80E32A960FB6F89471
:1004A000DEBF0FBECDBFDF91CF911F910F91FF90A7
:1004B000EF90DF90CF90BF90AF909F908F907F9004
:1004C0006F905F904F900C94240191E0611101C0F6
:1004D00090E09295990F990F907C890F80680C9409
:1004E0004D0181E00C944D0182E00C944D010F937D
:1004F0001F93CF93DF9300D000D00F92CDB7DEB71C
:1005000089836C837D834A832B83672B11F088302A
:1005100050F00F900F900F900F900F90DF91CF91B0
:100520001F910F910895880F880F880F80640E9493
:100530004D010C811D81085F1F4FEC81FD81819170
:10054000EC83FD830E9424018C819D81801791079B
:10055000A1F781E09B819115A9F08295880F880F02
:10056000807CEA818E0F80680E944D0189810F9006
:100570000F900F900F900F90DF91CF911F910F91DF
:100580000C94240180E0E9CF80917A0090917B0067
:10059000019690937B0080937A0080FF0AC041E02F
:1005A00060E081E00E94330340E061E081E00C9470
:1005B000330340E060E081E00E94330341E061E00A
:1005C00081E00C9433033E9A3F983D98359886B16C
:1005D000887F86B986B1866086B9379A0895379A3A
:1005E000089537980895813220F56115710521F13C
:1005F00097B1907E97B997B1982B97B9369A349B5B
:10060000FECF349A3D9B0FC084B195B10024880F72
:10061000991F001C880F991F001C892F902DFB012A
:1006200080839183089584B195B1FB018083918388
:10063000089580E090E0089585E090E008950895A1
:100640000895BC0180E090E00E94040A20E030E0C0
:1006500040EA50E40E94410A20E030E040E85AE3DA
:100660000E94410A08956830F0F4823049F170F434
:100670008115D1F081E001C0880F6A95EAF798B33F
:100680004130A1F18095892388BB0895833021F5FD
:1006900081E001C0880F6A95EAF792B34130E9F032
:1006A0008095892382BB089581E001C0880F6A95F7
:1006B000EAF79BB34130B9F0809589238BBB08954D
:1006C00081E001C0880F6A95EAF795B3413041F0A7
:1006D0008095892385BB08950895892B82BB089551
:1006E000892B85BB0895892B8BBB0895892B88BBEB
:1006F00008956830F0F4823049F170F48115D1F03A
:1007000081E001C0880F6A95EAF797B34130A1F103
:100710008095892387BB0895833021F581E001C04E
:10072000880F6A95EAF791B34130E9F08095892303
:1007300081BB089581E001C0880F6A95EAF79AB3FA
:100740004130B9F0809589238ABB089581E001C0CA
:10075000880F6A95EAF794B3413041F08095892378
:1007600084BB08950895892B81BB0895892B84BB90
:100770000895892B8ABB0895892B87BB089568301B
:1007800098F48230A1F020F4811579F086B303C08B
:10079000833079F480B390E002C0959587956A958F
:1007A000E2F78170FA018083089589B3F4CF83B3AF
:1007B000F2CF0895823049F020F4811541F068BBF2
:1007C0000895833031F462BB089565BB08956BBB17
:1007D00008950895823049F020F4811541F067BBF7
:1007E0000895833031F461BB089564BB08956ABBFA
:1007F00008950895823069F030F4811571F086B360
:10080000FB0180830895833061F480B3FB01808312
:10081000089583B3FB018083089589B3FB0180832E
:10082000089508958130910569F08230910531F085
:10083000892B39F48BB780648BBF08958BB78062A6
:100840008BBF08958BB780688BBF08950F931F935C
:10085000CF938C01C62F6430F8F48230910501F1FA
:10086000019798F1C9F440E063E083E00E947903C6
:1008700041E063E083E00E94330385B7CC0FCC0FE7
:10088000837FC82BC5BFC8010E9412040FB607FCA6
:1008900003C08FB780688FBFCF911F910F910895CC
:1008A0006230D0F740E062E081E00E94790341E0ED
:1008B00062E081E00E94330384B7C295CC0FCC0F75
:1008C000C07C8F7BC82BC4BFDECF40E062E083E0FA
:1008D0000E94790341E062E083E00E94330385B720
:1008E0008C7F8C2B85BFCFCF8130910569F0823012
:1008F000910531F0892B39F48BB78F7B8BBF08952D
:100900008BB78F7D8BBF08958BB78F778BBF089583
:100910008130910579F08230910539F0892B49F4C5
:100920006093800070938100089560937C007093C1
:100930007D00089560937E0070937F0008951F925C
:100940000F920FB60F9211242F933F934F935F9303
:100950006F937F938F939F93AF93BF93EF93FF9387
:10096000E0918000F0918100309709F00995FF91A6
:10097000EF91BF91AF919F918F917F916F915F9117
:100980004F913F912F910F900FBE0F901F90189590
:100990001F920F920FB60F9211242F933F934F93F4
:1009A0005F936F937F938F939F93AF93BF93EF93D7
:1009B000FF93E0917E00F0917F00309709F0099558
:1009C000FF91EF91BF91AF919F918F917F916F9127
:1009D0005F914F913F912F910F900FBE0F901F90FD
:1009E00018951F920F920FB60F9211242F933F93D9
:1009F0004F935F936F937F938F939F93AF93BF9327
:100A0000EF93FF93E0917C00F0917D00309709F027
:100A10000995FF91EF91BF91AF919F918F917F9138
:100A20006F915F914F913F912F910F900FBE0F905B
:100A30001F90189581309105E8F41092870010926C
:100A4000860083B78F7B83BF83B7877F83BFFB011C
:100A50006830710570F4EF5FF44F0C94E40985E0A1
:100A600090E0909389008093880083B7887F682BFB
:100A700063BF089591F08230910509F448C0833036
:100A8000910529F7909387008093860083B780644F
:100A900083BF83B7886083BFDACF9093870080934A
:100AA000860083B7806483BF83B7877F83BFCFCF40
:100AB0001092890010928800D8CF81E090E0909346
:100AC000890080938800D1CF88E090E090938900DE
:100AD00080938800CACF80E490E09093890080934F
:100AE0008800C3CF80E091E09093890080938800D4
:100AF000BCCF80E094E09093890080938800B5CFCC
:100B000086E090E09093890080938800AECF909328
:100B100087008093860083B78F7B83BF83B788600D
:100B200083BF95CFCF93DF9300D000D0CDB7DEB792
:100B3000FC01892B09F470C0809188009091890094
:100B4000892B09F469C0A0918800B091890020E444
:100B500032E44FE050E00E94EA099B01AC01569557
:100B600047953795279529833A834B835C83DF012B
:100B700020E030E546ED5CED0E94EA0929813A81EA
:100B80004B815C81260F371F481F591F29833A83E9
:100B90004B835C83A0918800B091890020E432E40B
:100BA0004FE050E00E94EA099B01AC0189819A81E3
:100BB000AB81BC8182179307A407B507A8F1BC01DC
:100BC000CD010E94A309832F942FA52FB0E02111FE
:100BD0003AC012BE80938E0090938F00A093900035
:100BE000B093910089B7816089BF80918E00909108
:100BF0008F00A0919000B0919100892B8A2B8B2BB4
:100C0000A1F789B78E7F89BF81E00F900F900F9079
:100C10000F90DF91CF91089580E00F900F900F908B
:100C20000F90DF91CF91089581E090E0A0E0B0E0D7
:100C30002FEF22BF80938E0090938F00A09390009F
:100C4000B0939100CFCF21950196A11DB11DF1CF99
:100C5000CF93DF9300D000D0CDB7DEB7FC01892B56
:100C600009F470C08091880090918900892B09F463
:100C700069C0A0918800B091890020E432E44FE07F
:100C800050E00E94EA099B01AC01569547953795C3
:100C9000279529833A834B835C83DF0120E032E18F
:100CA0004AE750E00E94EA0929813A814B815C8140
:100CB000260F371F481F591F29833A834B835C83B4
:100CC000A0918800B091890020E432E44FE050E028
:100CD0000E94EA099B01AC0189819A81AB81BC81A8
:100CE00082179307A407B507A8F1BC01CD010E94A4
:100CF000A309832F942FA52FB0E021113AC012BE73
:100D000080938E0090938F00A0939000B0939100F9
:100D100089B7816089BF80918E0090918F00A091EA
:100D20009000B0919100892B8A2B8B2BA1F789B76A
:100D30008E7F89BF81E00F900F900F900F90DF9111
:100D4000CF91089580E00F900F900F900F90DF915A
:100D5000CF91089581E090E0A0E0B0E02FEF22BFB6
:100D600080938E0090938F00A0939000B093910099
:100D7000CFCF21950196A11DB11DF1CF8D7F81307F
:100D800021F083B78F7C83BF08956130D1F7089538
:100D9000EF92FF920F931F93CF93DF9300D000D079
:100DA000CDB7DEB7FC01892B09F485C0809188009E
:100DB00090918900892B09F47EC0809186009091E2
:100DC0008700029709F077C0A0918800B091890050
:100DD00020E432E44FE050E00E94EA097B018C01FC
:100DE00016950795F794E794DF0120E030E546ED8E
:100DF0005CED0E94EA09E60EF71E081F191FE98242
:100E0000FA820B831C83A0918800B091890020E4B2
:100E100032E44FE050E00E94EA099B01AC01E21687
:100E2000F3060407150708F452C0B701C8010E9471
:100E3000A309C901DA0181509F4FAF4FBF4FE92E7F
:100E4000FA2E0B2F10E09983AA83BB831C82B90171
:100E5000CA0161507109810991096E0D7F1D801FC2
:100E6000911F9701A8010E94A30921502CBF12BE17
:100E700009811A812B813C8100938A0010938B0099
:100E800020938C0030938D0088B7826088BF89B72B
:100E9000826089BF80918A0090918B00A0918C0024
:100EA000B0918D00892B8A2B8B2BA1F789B78D7F71
:100EB00089BF81E001C080E00F900F900F900F90EC
:100EC000DF91CF911F910F91FF90EF90089520E057
:100ED00000E010E07801E394E9821A821B821C8210
:100EE000C5CFEF92FF920F931F93CF93DF9300D064
:100EF00000D0CDB7DEB7FC01892B09F483C0809107
:100F0000880090918900892B09F47CC0809186002B
:100F100090918700029709F075C0A0918800B09168
:100F2000890020E432E44FE050E00E94EA097B01AE
:100F30008C0116950795F794E794DF0120E032E1E4
:100F40004AE70E94EA09E60EF71E081F191FE98208
:100F5000FA820B831C83A0918800B091890020E461
:100F600032E44FE00E94EA099B01AC01E216F3066D
:100F70000407150708F452C0B701C8010E94A3096D
:100F8000C901DA0181509F4FAF4FBF4FE92EFA2EB2
:100F90000B2F10E09983AA83BB831C82B901CA017D
:100FA00061507109810991096E0D7F1D801F911F8C
:100FB0009701A8010E94A30921502CBF12BE0981EC
:100FC0001A812B813C8100938A0010938B0020931F
:100FD0008C0030938D0088B7826088BF89B78260AB
:100FE00089BF80918A0090918B00A0918C00B09174
:100FF0008D00892B8A2B8B2BA1F789B78D7F89BF19
:1010000081E001C080E00F900F900F900F90DF9172
:10101000CF911F910F91FF90EF90089520E000E095
:1010200010E07801E394E9821A821B821C82C5CF0A
:101030008CBF0895809384009093850008958093D9
:1010400082009093830008951F920F920FB60F9223
:1010500011242F933F934F935F936F937F938F93BD
:101060009F93AF93BF93EF93FF93809186009091EE
:101070008700029799F480918A0090918B00A0914B
:101080008C00B0918D000197A109B10980938A006D
:1010900090938B00A0938C00B0938D00E091820020
:1010A000F0918300309709F00995FF91EF91BF917E
:1010B000AF919F918F917F916F915F914F913F91F0
:1010C0002F910F900FBE0F901F9018951F920F92A7
:1010D0000FB60F9211242F933F934F935F936F930B
:1010E0007F938F939F93AF93BF93EF93FF938091E1
:1010F0008E0090918F00A0919000B0919100892B6B
:101100008A2B8B2B99F080918E0090918F00A0916B
:101110009000B09191000197A109B10980938E00D0
:1011200090938F00A0939000B0939100E091840081
:10113000F0918500309709F00995FF91EF91BF91EB
:10114000AF919F918F917F916F915F914F913F915F
:101150002F910F900FBE0F901F90189583B720917D
:10116000880030918900887F2770822B83BF089583
:1011700083B7887F83BF08959EB56770987F692B7A
:101180006EBD8C3059F1A8F4811571F18A3021F5CA
:101190008FB58E7F8FBD8FB582608FBD8EB5877FF7
:1011A0008EBD8EB580618EBD89B7846089BF81E0B8
:1011B00008958E3089F48FB58E7F8FBD8FB5826094
:1011C0008FBD8EB588608EBD8EB580618EBD89B7AE
:1011D000846089BF81E0089580E008958FB58E7F97
:1011E0008FBD8FB58D7FECCF8FB58E7F8FBD8FB5C7
:1011F0008D7F8FBD8EB5877F8EBD8EB58F7E8EBD68
:1012000087E19CEF9DBD8CBD89B7846089BF81E07B
:10121000089581E00895613039F010F080E008957C
:1012200099BD88BD81E008959BBD8ABD81E0089588
:10123000809392009093930008951F920F920FB69F
:101240000F9211242F933F934F935F936F937F934C
:101250008F939F93AF93BF93EF93FF9387E19CEF9F
:101260009DBD8CBD809194009091950001969093C6
:101270009500809394008091940090919500883E11
:10128000934089F0FF91EF91BF91AF919F918F9122
:101290007F916F915F914F913F912F910F900FBE72
:1012A0000F901F9018951092950010929400E09165
:1012B0009200F0919300309729F30995E3CF8EB512
:1012C0008F7E8EBD8EB580618EBD81E0089597BD05
:1012D00086BD81E008958FB780688FBF41E060E0F0
:1012E00081E00E94790341E061E081E00E9479039E
:1012F00040E060E081E00E94330341E061E081E092
:101300000E94330362E070E080E090E00E941A05E2
:101310000E94C40288E893E10E9492050E94C402E0
:1013200088EB9BE00E94920540E060E081E00E9433
:10133000330340E061E081E00E94330388E893E1F9
:101340000E949205E5CFA1E21A2EAA1BBB1BFD014C
:101350000DC0AA1FBB1FEE1FFF1FA217B307E40794
:10136000F50720F0A21BB30BE40BF50B661F771FEC
:10137000881F991F1A9469F76095709580959095CC
:101380009B01AC01BD01CF010895052E97FB1EF412
:1013900000940E94DC0957FD07D00E94A30907FCB6
:1013A00003D04EF40C94DC0950954095309521956E
:1013B0003F4F4F4F5F4F0895909580957095619581
:1013C0007F4F8F4F9F4F0895EE0FFF1F0590F491B1
:1013D000E02D09940E94F509A59F900DB49F900DF2
:1013E000A49F800D911D11240895A29FB001B39F69
:1013F000C001A39F700D811D1124911DB29F700D1E
:10140000811D1124911D0895E89409C097FB3EF4B5
:1014100090958095709561957F4F8F4F9F4F992341
:10142000A9F0F92F96E9BB279395F69587957795BF
:101430006795B795F111F8CFFAF4BB0F11F460FF7F
:101440001BC06F5F7F4F8F4F9F4F16C0882311F0D7
:1014500096E911C0772321F09EE8872F762F05C0EB
:10146000662371F096E8862F70E060E02AF09A9586
:10147000660F771F881FDAF7880F9695879597F97B
:1014800008950E94540A0C94C50A0E94B70A38F0C5
:101490000E94BE0A20F0952311F00C94AE0A0C9421
:1014A000B40A11240C94F90A0E94D60A70F3959F8D
:1014B000C1F3950F50E0551F629FF001729FBB274B
:1014C000F00DB11D639FAA27F00DB11DAA1F649FE7
:1014D0006627B00DA11D661F829F2227B00DA11D9A
:1014E000621F739FB00DA11D621F839FA00D611D20
:1014F000221F749F3327A00D611D231F849F600D41
:10150000211D822F762F6A2F11249F5750409AF069
:10151000F1F088234AF0EE0FFF1FBB1F661F771FF5
:10152000881F91505040A9F79E3F510580F00C94C0
:10153000AE0A0C94F90A5F3FE4F3983ED4F3869523
:1015400077956795B795F795E7959F5FC1F7FE2B60
:10155000880F911D9695879597F9089597F99F673C
:1015600080E870E060E008959FEF80EC089500242B
:101570000A941616170618060906089500240A94F8
:1015800012161306140605060895092E0394000C7E
:1015900011F4882352F0BB0F40F4BF2B11F460FF0D
:1015A00004C06F5F7F4F8F4F9F4F089557FD905836
:1015B000440F551F59F05F3F71F04795880F97FB17
:1015C000991F61F09F3F79F08795089512161306D1
:1015D0001406551FF2CF4695F1DF08C01616170600
:1015E0001806991FF1CF8695710561050894089535
:1015F000E894BB2766277727CB0197F90895F894DD
:10160000FFCF58055D0564056B05720579058005FA
:021610002F05A4
:10161200000102040506C0F9A4B0999282F88090F4
:0A16220031323334353637383900E1
:00000001FF
