:100000000C942A000C943F000C943F000C943F0089
:100010000C943F000C943F000C943F000C943F0064
:100020000C943F000C943F000C943F000C943F0054
:100030000C943F000C943F000C943F000C943F0044
:100040000C943F000C943F000C943F000C943F0034
:100050000C943F0011241FBECFE5D8E0DEBFCDBF1A
:1000600010E0A0E6B0E0E4ECF9E002C005900D92EB
:10007000AA37B107D9F70E94D9030C94E0040C9475
:1000800000006FEF80E00E94B10341E067E080E094
:100090000C9440038A3008F00895E82FF0E0EA5904
:1000A000FF4F608180E00C94A10341E067E080E0B5
:1000B0000C94FA0240E067E080E00C94FA02CF93DF
:1000C000DF93C3E6D0E0699141E083E00E94400302
:1000D000FE0141E0629183E00E94FA0280E0C636B0
:1000E000D80789F7C0E6D0E0699140E083E00E943C
:1000F0004003FE0141E0629183E00E94FA0280E049
:10010000C336D80789F7DF91CF910895AF92BF9298
:10011000CF92DF92EF92FF920F931F93CF93DF93D3
:10012000CDB7DEB72A970FB6F894DEBF0FBECDBFAE
:1001300089E0E0E7F0E0DE01119601900D928A95EA
:10014000E1F781E08A8743E6A42E40E0B42EC12C7B
:10015000D12C40E0F501608183E00E94FA0230E694
:10016000E32E30E0F32E00E010E0F70161917F0113
:10017000AE01465F5F4F83E00E9486038A8581154A
:1001800041F10F5F1F4F0330110579F7FFEFAF1AF1
:10019000BF0AF50141E0629183E00E94FA028FEF0D
:1001A000C81AD80A93E0C916D10499F6F12C8F2DFC
:1001B0002A960FB6F894DEBF0FBECDBFDF91CF9168
:1001C0001F910F91FF90EF90DF90CF90BF90AF9075
:1001D00008958FE59AEE0197F1F700C00000AE0197
:1001E000465F5F4FF701629183E00E9486038A8534
:1001F0008111C7CFC801880F991F800F911FFE0181
:100200003196E80FF91FEC0DFD1DF080005A1F4FCD
:10021000AE01465F5F4FF801608183E00E94860374
:100220008A858115A9F3F601ED59FF4F41E0608100
:1002300083E00E94FA02BBCFCF93DF930F92CDB73A
:10024000DEB7898341E061E082E00E94FA026981C1
:1002500081E00E94A10341E060E082E00E94FA0296
:100260008FE99FE00197F1F700C0000040E060E0F7
:1002700082E00E94FA028FE99FE00197F1F700C047
:1002800000000F90DF91CF910895CF93DF930F92ED
:10029000CDB7DEB7898340E061E082E00E94FA02D8
:1002A000698181E00E94A10341E060E082E00E9458
:1002B000FA028FE99FE00197F1F700C0000040E0EB
:1002C00060E082E00E94FA028FE99FE00197F1F777
:1002D00000C000000F90DF91CF91089561E081E0B0
:1002E0000E94B10341E060E082E00E94400341E0EF
:1002F00061E082E00E9440038FE39CE90197F1F7FF
:1003000000C0000088E30E9445018FE097E201975A
:10031000F1F700C0000088E30E9445018FE097E2FA
:100320000197F1F700C0000088E30E9445018FE0CB
:1003300097E20197F1F700C0000088E00E944501B4
:100340008FE097E20197F1F700C0000081E00E9482
:1003500045018FE097E20197F1F700C0000086E0C9
:100360000E9445018FE097E20197F1F700C000007D
:100370008CE00E9445018FE097E20197F1F700C001
:1003800000000895CF93DF93EC01892B49F0888119
:10039000811531F021960E941C0189918111FBCFBA
:1003A000DF91CF9108954F925F926F927F928F92DB
:1003B0009F92AF92BF92CF92DF92EF92FF920F93F4
:1003C0001F93CF93DF93CDB7DEB72A970FB6F8947C
:1003D000DEBF0FBECDBF6B017C01C114D104E104AF
:1003E000F1040CF445C009F44FC04E018FEF881A98
:1003F000980A540100E010E038018AE0482E512CA0
:10040000B601C7019201A3010E943904605DF501A4
:1004100061935F0169017A01C8010F5F1F4FC11429
:10042000D104E104F10461F784010F5F1F4F080F4D
:10043000191FF80182918F010E941C0108151905EE
:10044000C1F72A960FB6F894DEBF0FBECDBFDF917D
:10045000CF911F910F91FF90EF90DF90CF90BF90C1
:10046000AF909F908F907F906F905F904F90089586
:100470008DE20E941C01F094E094D094C094C11CC1
:10048000D11CE11CF11CB1CF80E32A960FB6F89481
:10049000DEBF0FBECDBFDF91CF911F910F91FF90B7
:1004A000EF90DF90CF90BF90AF909F908F907F9014
:1004B0006F905F904F900C941C0191E0611101C00E
:1004C00090E09295990F990F907C890F80680C9419
:1004D000450181E00C94450182E00C9445010F93A5
:1004E0001F93CF93DF9300D000D00F92CDB7DEB72C
:1004F00089836C837D834A832B83672B11F088303B
:1005000050F00F900F900F900F900F90DF91CF91C0
:100510001F910F910895880F880F880F80640E94A3
:1005200045010C811D81085F1F4FEC81FD81819188
:10053000EC83FD830E941C018C819D8180179107B3
:10054000A1F781E09B819115A9F08295880F880F12
:10055000807CEA818E0F80680E94450189810F901E
:100560000F900F900F900F90DF91CF911F910F91EF
:100570000C941C0180E0E9CF3E9A3F983D98359855
:1005800086B1887F86B986B1866086B9379A089524
:10059000379A089537980895813220F561157105CD
:1005A00021F197B1907E97B997B1982B97B9369A68
:1005B000349BFECF349A3D9B0FC084B195B100248B
:1005C000880F991F001C880F991F001C892F902DE0
:1005D000FB0180839183089584B195B1FB018083F1
:1005E0009183089580E090E0089585E090E008957B
:1005F000089508956830F0F4823049F170F481155F
:10060000D1F081E001C0880F6A95EAF798B34130D4
:10061000A1F18095892388BB0895833021F581E07D
:1006200001C0880F6A95EAF792B34130E9F08095EE
:10063000892382BB089581E001C0880F6A95EAF79B
:100640009BB34130B9F0809589238BBB089581E03D
:1006500001C0880F6A95EAF795B3413041F0809563
:10066000892385BB08950895892B82BB0895892B22
:1006700085BB0895892B8BBB0895892B88BB089572
:100680006830F0F4823049F170F48115D1F081E0E6
:1006900001C0880F6A95EAF797B34130A1F18095C0
:1006A000892387BB0895833021F581E001C0880F3D
:1006B0006A95EAF791B34130E9F08095892381BBCF
:1006C000089581E001C0880F6A95EAF79AB3413036
:1006D000B9F0809589238ABB089581E001C0880F15
:1006E0006A95EAF794B3413041F08095892384BB41
:1006F00008950895892B81BB0895892B84BB0895A3
:10070000892B8ABB0895892B87BB0895683098F49C
:100710008230A1F020F4811579F086B303C08330D4
:1007200079F480B390E002C0959587956A95E2F7D9
:100730008170FA018083089589B3F4CF83B3F2CF37
:100740000895823049F020F4811541F068BB089586
:10075000833031F462BB089565BB08956BBB089587
:100760000895823049F020F4811541F067BB089567
:10077000833031F461BB089564BB08956ABB08956A
:100780000895823069F030F4811571F086B3FB0171
:1007900080830895833061F480B3FB0180830895E2
:1007A00083B3FB018083089589B3FB01808308959F
:1007B000089500D0CDB7DEB767E081E00E94B103B5
:1007C00040E060E080E00E9440030E94BC0221C043
:1007D00020E030E040E050E4B701C8010E947A0414
:1007E00087FD42C020E030E040E450E4B701C8019A
:1007F0000E947A0487FF33C063E081E00E94A10376
:100800002FEF83ED90E3215080409040E1F700C04E
:100810000000BE016F5F7F4F80E00E94CC028981A3
:100820009A81BC01660F771F660F771F680F791FCB
:10083000672F6695669570E080E090E00E947F04E7
:100840007B018C0120E030E040E85FE30E947A0405
:1008500087FFBECF60E081E00E94A103D1CF67E0B7
:1008600081E00E94A103CCCF61E081E00E94A1035E
:10087000C7CF052E97FB1EF400940E94500457FD2D
:1008800007D00E94580407FC03D04EF40C94500487
:1008900050954095309521953F4F4F4F5F4F0895AC
:1008A00090958095709561957F4F8F4F9F4F0895DC
:1008B000A1E21A2EAA1BBB1BFD010DC0AA1FBB1F64
:1008C000EE1FFF1FA217B307E407F50720F0A21BD6
:1008D000B30BE40BF50B661F771F881F991F1A9443
:1008E00069F760957095809590959B01AC01BD016D
:1008F000CF0108950E94BC0408F481E00895E894B3
:1009000009C097FB3EF490958095709561957F4F57
:100910008F4F9F4F9923A9F0F92F96E9BB27939505
:10092000F695879577956795B795F111F8CFFAF415
:10093000BB0F11F460FF1BC06F5F7F4F8F4F9F4F46
:1009400016C0882311F096E911C0772321F09EE8A4
:10095000872F762F05C0662371F096E8862F70E00A
:1009600060E02AF09A95660F771F881FDAF7880FE4
:100970009695879597F90895990F0008550FAA0B3A
:10098000E0E8FEEF16161706E807F907C0F01216A2
:100990001306E407F50798F0621B730B840B950BA5
:1009A00039F40A2661F0232B242B252B21F40895FA
:1009B0000A2609F4A140A6958FEF811D811D089597
:0409C000F894FFCFD9
:1009C400000102040506C0F9A4B0999282F880904F
:0A09D400313233343536373839003C
:00000001FF
