:100000000C942A000C94C1100C94EA100C94131157
:100010000C9447000C9447000C9447000C94710416
:100020000C9447000C94D8120C94F7110C943312D2
:100030000C9447000C9447000C9447000C94470024
:100040000C9447000C9447000C9447000C94470014
:100050000C94470011241FBECFE5D8E0DEBFCDBF12
:1000600010E0A0E6B0E0E6E7FBE202C005900D92EA
:10007000A038B107D9F725E0A0E8B0E001C01D9293
:10008000AD31B207E1F70E9424140C94B9150C9419
:100090000000EF92FF921F93CF93DF9300D000D028
:1000A000CDB7DEB789839A83162FF42E8AE190E0CC
:1000B0000E946A028B839C83892B09F44DC0809136
:1000C000800090918100892B09F448C0111142C031
:1000D000EB81FC81108E118E168BF78A89819A81B3
:1000E000819391937F01CF010E94B6028B819C8105
:1000F0000C960E94B6028B819C81FC0180879187BF
:10010000828B938B85E090E0811B91098487958792
:100110002689809188008217D0F030E0C901880FCD
:10012000991F880F991F880F991F820F931FB7017E
:1001300088559F4F0E94BA0281E00F900F900F9058
:100140000F90DF91CF911F91FF90EF900895209332
:100150008800E3CF11E0BCCF8FEFEFCF8B819C8184
:10016000809380009093810088EA90E00E94A8022A
:1001700081EB90E00E94A8028FE990E00E94A80223
:1001800086E990E00E94A80289E890E00E94A80217
:100190008FE990E0809394009093950086E990E039
:1001A000809392009093930091CF0F931F93CF93DE
:1001B000DF938B01C0918600D0918700C80FD91FB3
:1001C000809180009091810002960E941303E0913B
:1001D0008000F0918100C283D3838091860090914A
:1001E0008700BF016E5F7F4FC817D907B0F48091B9
:1001F0009200909193000E94DB0201151105B1F06D
:100200006091800070918100645F7F4FC801DF9131
:10021000CF911F910F910C94DB02809194009091EB
:1002200095000E94DB020115110551F7DF91CF9176
:100230001F910F9108950F931F93CF93DF93809198
:100240008900811561F1F894E0918E00F0918F00A2
:10025000C681D781CE010C960E94130378948E013B
:100260000E5F1F4FC8010E9413032E8980918800E2
:10027000821710F42093880030E0C901880F991F7D
:10028000880F991F880F991F820F931FB8018855F7
:100290009F4F0E94BA02809189008111D4CF0E94A1
:1002A000A2092091840030918500821B930B8093DA
:1002B0008200909383002091860030918700009700
:1002C00009F47AC02F5F3F4F209386003093870058
:1002D0000197809382009093830050919400409105
:1002E00095002115310509F0A2C0E0919200F0912E
:1002F0009300E0939400F093950050939200409304
:1003000093004081411133C054C0F8948E010E5FB8
:100310001F4FC8010E9413038C899D89892B21F0EE
:10032000CE010C960E94130378942E898091880048
:10033000821710F42093880030E0C901880F991FBC
:10034000880F991F880F991F820F931FB801885536
:100350009F4F0E94BA02E0919400F0919500808135
:100360002091860030918700811509F458C00580DE
:10037000F681E02DC681D7818A819B8128173907B4
:1003800020F680918200909183000097A9F02F5F62
:100390003F4F20938600309387000197809382001F
:1003A00090938300E0919400F09195004081411179
:1003B000DECF009709F086CF20938400309385002C
:1003C00080918800282F30E0A901440F551F440F69
:1003D000551F440F551FFA01E20FF31FE855FF4F59
:1003E0009081911599F028C08150282F30E0A90103
:1003F000440F551F440F551F440F551FFA01E20FBC
:10040000F31FE855FF4F9081911114C08111ECCF7B
:1004100010928800DF91CF911F910F9108958091E4
:10042000820090918300009709F04CCFC5CFE52F53
:10043000F42F67CF80938800420F531FDA01A8552D
:10044000BF4F1196ED91FD910280F381E02DFE9357
:10045000EE93119745555F4FE417F50781F08681BC
:1004600097818093800090938100DC01ED91FD9154
:1004700055966C91DF91CF911F910F910994028055
:10048000F381E02D1196ED93FD93E9CF0F931F9328
:10049000CF93DF93FC010580F681E02DC681D781E3
:1004A0008E01045F1F4FC8010E941303B80189E841
:1004B00090E00E94BA02E0918000F091810081E01A
:1004C0002E899689291708F480E0DF91CF911F913A
:1004D0000F910895CF93DF9300D0CDB7DEB7898316
:1004E0009A830E949C092091BA003091BB008981B7
:1004F0009A81820F931F883E43E09407A8F428173F
:10050000390790F4A90144545F4F49835A8380937B
:10051000BA009093BB000E94700A89819A810F9063
:100520000F90DF91CF91089519821A82F4CF089528
:100530001092BA001092BB0008958091BA00909179
:10054000BB0028EE33E0A901481B590BCA010895EE
:10055000FC010396818392832FEF3FEF3483238343
:10056000968385839087878310820895FC01108687
:1005700011860895CF93DF93DC01FB0111968D91D5
:100580009D91EC012A813B8122833383848395836F
:100590002A813B81E9017D836C83EC017B836A8343
:1005A000FE936E931197A087B1878C918F5F8C9388
:1005B000DF91CF910895CF93DF93AC01EB012881B8
:1005C00039812F3F320751F1FA013396DA0115963E
:1005D0008D919D91DC018D919D912817390750F0E7
:1005E0000280F381E02DA281B3818D919D91281726
:1005F0003907B0F7A281B381AA83BB831696DE9335
:10060000CE93EC83FD83D383C28348875987FA0155
:1006100080818F5F8083DF91CF910895DA011796F3
:10062000ED91FD91E7CFCF93DF93FC01A281B381E0
:100630008481958116969E938E93149784819581DB
:10064000EC01BB83AA83A085B18511962D913D91C4
:1006500013972E173F0741F0108611868C91815019
:100660008C93DF91CF91089511968D939D9313975D
:10067000108611868C9181508C93DF91CF910895D3
:1006800031E1FC01308322E22293A3E3A29362933F
:100690007293129260E86293129262E0629363E056
:1006A000629364E0629365E0629366E0629367E060
:1006B000629368E0629369E0629360E162933293CF
:1006C00032E1329333E1329334E1329335E13293C4
:1006D00036E1329337E1329338E1329339E13293A4
:1006E00030E2329331E23293229323E22293429317
:1006F000529326E2229327E2229328E2229329E2D0
:10070000229320E3229321E32293869708951BBC32
:100710008CE78ABD8BE08EBD89B7806189BFA091CF
:10072000A404B091A504CD91CDBFDD91DEBFFF91B2
:10073000EF91DF91CF91BF91AF919F918F917F9179
:100740006F915F914F913F912F911F910F91FF906A
:10075000EF90DF90CF90BF90AF909F908F907F9061
:100760006F905F904F903F902F901F900F900FBE13
:100770000F90089581E0089508950F920FB6F894B0
:100780000F921F9211242F923F924F925F926F927D
:100790007F928F929F92AF92BF92CF92DF92EF9211
:1007A000FF920F931F932F933F934F935F936F93FA
:1007B0007F938F939F93AF93BF93CF93DF93EF93E9
:1007C000FF93A091A404B091A5040DB60D920EB6AE
:1007D0000D920E94890BA091A404B091A504CD9123
:1007E000CDBFDD91DEBFFF91EF91DF91CF91BF9142
:1007F000AF919F918F917F916F915F914F913F91B9
:100800002F911F910F91FF90EF90DF90CF90BF90AD
:10081000AF909F908F907F906F905F904F903F90A0
:100820002F901F900F900FBE0F9008950F920FB64C
:10083000F8940F921F9211242F923F924F925F9241
:100840006F927F928F929F92AF92BF92CF92DF92E0
:10085000EF92FF920F931F932F933F934F935F93CA
:100860006F937F938F939F93AF93BF93CF93DF93B8
:10087000EF93FF93A091A404B091A5040DB60D923F
:100880000EB60D920E94B4090E94890BA091A40497
:10089000B091A504CD91CDBFDD91DEBFFF91EF9169
:1008A000DF91CF91BF91AF919F918F917F916F9188
:1008B0005F914F913F912F911F910F91FF90EF907A
:1008C000DF90CF90BF90AF909F908F907F906F9070
:1008D0005F904F903F902F901F900F900FBE0F9002
:1008E00008950E94160418950F931F93CF93DF93DA
:1008F000EC010FB6F8940F928E8D1816C4F48E0189
:100900000F5E1F4F05C08E8D81508E8F18167CF4A0
:100910008989811561F0C8010E94FC0B811599F34A
:100920000E94860C8E8D81508E8F18168CF38FEF5F
:100930008E8F0F900FBE0FB6F8940F928D8D1816F4
:10094000C4F48E01085F1F4F05C08D8D81508D8FBF
:1009500018167CF48885811561F0C8010E94FC0B93
:10096000811599F30E94860C8D8D81508D8F1816FC
:100970008CF38FEF8D8F0F900FBEDF91CF911F9172
:100980000F9108951F93CF93DF9300D000D00F9263
:10099000CDB7DEB7182F6983811509F442C08FE106
:1009A00090E00E946A028C839D838C819D81892BBB
:1009B000C1F1F981F19FF0011124EA83FB83CF019A
:1009C00001960E946A02EC81FD81808391830097E9
:1009D00021F12A813B81280F391F22833383128E14
:1009E000848395832A813B81F9812F1B3109820FF2
:1009F000931FEC81FD8186839783138F4981448FF8
:100A00008FEF858F868FCF0108960E94A8028C8178
:100A10009D8141960E94A80206C08C819D810E9402
:100A200097021C821D828C819D810F900F900F90E8
:100A30000F900F90DF91CF911F9108950F931F9307
:100A4000CF93DF93CDB7DEB728970FB6F894DEBF0C
:100A50000FBECDBF8C016E837F834C835D8328875F
:100A60000FB6F8940F92FC01928D838D981708F4BD
:100A700053C08C819D81892B09F467C0CE010196FA
:100A80000E94410C13C0C8010E9474040E94700AA5
:100A90000FB6F8940F92F801928D838D981708F491
:100AA0003BC08C819D81892B09F44FC00F900FBEF4
:100AB0000E949C090FB6F8940F92F801858D8F3F24
:100AC00009F4158EF801868D8F3F09F4168E0F906C
:100AD0000FBEBE016C5F7F4FCE0101960E944C0C91
:100AE000811137C00FB6F8940F92F801928D0F90D4
:100AF0000FBE838D9813C7CF6C817D81C801089686
:100B00000E94D80BC8010E9474040E94700A8111CF
:100B1000BFCF0E94BD03BCCFF801448D411120C05E
:100B2000F801828D8F5F828F8189811136C00F908D
:100B30000FBE81E028960FB6F894DEBF0FBECDBF82
:100B4000DF91CF911F910F9108950F900FBE80E01C
:100B5000F1CFC8010E9474040E94700A80E0EACFBD
:100B600050E0F8856E817F81F11121C0F801848108
:100B700095810E949A15F801248D84819581820FB8
:100B8000911D84839583228133818217930740F2DC
:100B90008081918184839583C3CFC80141960E944F
:100BA000FC0B813009F0C3CF0E94BD03C0CFF80118
:100BB000868197810E949A15F801248D30E0868104
:100BC0009781821B930B8683978340815181841781
:100BD000950708F0A5CF82819381821B930B8683B2
:100BE00097839ECFCF93DF9300D000D0CDB7DEB7F1
:100BF0008B839C8349835A83EB81FC81928D838D07
:100C0000981740F080E00F900F900F900F90DF91B9
:100C1000CF910895448D411114C0EB81FC81828DE8
:100C20008F5F828F868D8F3F31F18F5FEB81FC81EB
:100C3000868F81E00F900F900F900F90DF91CF91F2
:100C4000089550E0211126C0848195810E949A1553
:100C5000EB81FC81248D84819581820F911D848399
:100C600095832281338182179307B8F28081918125
:100C700084839583D2CF81898115D9F2CF014196A2
:100C80000E94FC0B8115A9F281E0E981FA81808341
:100C900081E0D0CFEB81FC81868197810E949A15FB
:100CA000EB81FC81248D30E086819781821B930B40
:100CB00086839783408151818417950708F0ADCFD3
:100CC00082819381821B930B86839783A6CFEF92B9
:100CD000FF920F931F93CF93DF93CDB7DEB7289783
:100CE0000FB6F894DEBF0FBECDBF8C016F8378873F
:100CF0004C835D832E830FB6F8940F92FC01828D96
:100D0000811156C08C819D81892B09F47CC0CE0154
:100D100001960E94410C7801F1E1EF0EF11C19C01F
:100D20006C817D81C7010E94D80BC8010E947404A8
:100D30000E94700A811509F438C00FB6F8940F921A
:100D4000F801828D811134C08C819D81892B09F439
:100D50005AC00F900FBE0E949C090FB6F8940F92D4
:100D6000F801858D8F3F09F4158EF801868D8F3F30
:100D700009F4168E0F900FBEBE016C5F7F4FCE013F
:100D800001960E944C0C81114EC00FB6F8940F9240
:100D9000F801828D0F900FBE811509F4C1CFC801F3
:100DA0000E9474040E94700AC8CF0E94BD03C5CF80
:100DB000F801E680F78080819181009789F0248D89
:100DC000422F50E0B701620F711D66837783228145
:100DD000338162177307B8F58F8198850E949A1541
:100DE000FE81F11126C0F801828D8150828F8085AD
:100DF000811529F1C80108960E94FC0B8130F9F495
:100E00000E94BD031CC00F900FBE80E028960FB655
:100E1000F894DEBF0FBECDBFDF91CF911F910F9130
:100E2000FF90EF900895C8010E9474040E94700A18
:100E3000ECCFF801E682F7828189811108C00F901A
:100E40000FBE81E0E3CF86839783BC01C5CFC80185
:100E500041960E94FC0B811591F3D2CFCF93DF9383
:100E600000D000D0CDB7DEB78B839C839B01498334
:100E70005A83AB81BC815A969C915A9780E091111C
:100E800007C00F900F900F900F90DF91CF910895B2
:100E90008D919D9112970097B1F05C965C91E52F32
:100EA000F0E056976D917D91650F711D7E936E9365
:100EB00014974D915D91149764177507C0F4AF01B5
:100EC000C9010E949A15EB81FC81828D8150828F2D
:100ED000858D8F3F89F08F5FEB81FC81858F81E06D
:100EE0000F900F900F900F90DF91CF91089516966D
:100EF0008D939D93BC01E3CF8085811581F3CF0154
:100F000008960E94FC0B811551F381E0A981BA81FA
:100F10008C9381E0E5CFFC010FB6F8940F92828D9F
:100F20000F900FBE0895FC01828D0895CF93DF933B
:100F3000EC01888199810E949702CE01DF91CF91C7
:100F40000C949702FC01928D81E0911180E008954C
:100F5000FC01928D81E0238D291380E00895CF93C9
:100F6000DF93EC01E091A404F091A5048283D38384
:100F70008091AE049091AF046091A4047091A50497
:100F8000C817D90750F48091C4049091C5046E5FCE
:100F90007F4FDF91CF910C94DB028091C60490913A
:100FA000C7046E5F7F4F0E94DB02809160009091CA
:100FB0006100C817D90720F4C0936000D093610086
:100FC000DF91CF910895CF92DF92EF92FF920F932E
:100FD0001F93CF93DF93CDB7DEB72C970FB6F8945E
:100FE000DEBF0FBECDBF8D839E836F83788749831D
:100FF0005A8329873A87EB82FC82760181E290E06E
:101000000E946A028B879C878B859C85009709F4D8
:1010100002C1C114D10409F4EFC0FC01C78AF08EEB
:1010200049815A8165EA70E0C7010E94A315898150
:101030009A810197EB85FC85E788F08CE80EF91E14
:1010400047E050E06F817885CF0149960E94AA154C
:10105000EB85FC8510A2102F053008F07BC0EB85D6
:10106000FC85168B32966F01CF010E94B6028B85EC
:101070009C850C960E94B6028B859C85FC0180871E
:10108000918785E090E0811B910984879587F38B98
:10109000E28B49855A856D817E81C7010E9440039C
:1010A000EB85FC85808391838B819C81892B29F042
:1010B000CF01EB81FC81808391830FB6F8940F926E
:1010C0008091B0048F5F8093B0048091A4049091CC
:1010D000A504892B09F459C08091AB04811509F44A
:1010E00045C0EB85FC8526898091AD04821710F4FC
:1010F0002093AD048091A6048F5F8093A604809115
:10110000AC04821710F42093AC0430E0C901880FBE
:10111000991F880F991F880F991F820F931FB6017F
:1011200086529B4F0E94BA020F900FBE8091AB0473
:10113000811112C081E02C960FB6F894DEBF0FBE6D
:10114000CDBFDF91CF911F910F91FF90EF90DF9076
:10115000CF90089514E083CFE091A404F091A5040A
:101160008689801738F70E94BD03E4CFE091A4047C
:10117000F091A5048689081708F4B3CFEB85FC85A8
:10118000F093A504E093A404ACCFEB85FC85F09329
:10119000A504E093A4048091B004813009F0A1CFAC
:1011A0005AEDE52E54E0F52EC7010E94A802F9E0A1
:1011B000EF0EF11C87E095E08E159F05A9F781EDF4
:1011C00094E00E94A80288EC94E00E94A8028BEBB5
:1011D00094E00E94A80282EB94E00E94A80281EDB4
:1011E00094E09093C7048093C60488EC94E09093B5
:1011F000C5048093C40475CF89819A810E946A02D4
:101200007C01EB85FC85878BF08E892B09F008CF5C
:10121000CF010E9497028FEF8ECF0F931F93CF9332
:10122000DF9300D000D0CDB7DEB78B839C830FB6A1
:10123000F8940F928091A4049091A5042B813C8195
:101240008217930739F0232B29F0EB81FC81E98386
:10125000FA8308C08091A4049091A5048B839C8399
:1012600019821A820B811C810E5F1F4FC8010E94D8
:101270001303EB81FC8184899589892B21F0CF01AF
:101280000C960E941303B80182EB94E00E94BA020C
:101290008091B1048F5F8093B1048091A6048F5F29
:1012A0008093A6040F900FBE8091AB04811521F0AE
:1012B00029813A81232B49F00F900F900F900F90C6
:1012C000DF91CF911F910F9108950E94BD03F4CF3C
:1012D000AF92BF92CF92DF92EF92FF920F93A12C29
:1012E000B12C6501750100E0950145E550E06BE723
:1012F00070E085E59BE00E94E307813041F00F91AB
:10130000FF90EF90DF90CF90BF90AF900895F8944A
:101310008093AB041092AF041092AE040F91FF9033
:10132000EF90DF90CF90BF90AF900C948703F8942C
:101330001092AB040C94BC038091AA048F5F80933D
:10134000AA0408950FB6F8940F928091AE0490917C
:10135000AF040F900FBE08958091AE049091AF043A
:1013600008958091B00408950F931F93CF93DF9356
:101370008091AA0481116BC08091AE049091AF045A
:1013800001969093AF048093AE048091AE04909147
:10139000AF04892B09F465C08091600090916100D1
:1013A0002091AE043091AF042817390708F454C0D7
:1013B000E091C604F091C704808181112DC085C0E1
:1013C0008E010E5F1F4FC8010E9413038C899D89F7
:1013D000892B21F0CE010C960E9413032E89809157
:1013E000AC04821710F42093AC0430E0C901880FDC
:1013F000991F880F991F880F991F820F931FB8019B
:1014000086529B4F0E94BA02E091C604F091C70435
:101410008081811509F459C0E091C604F091C70498
:101420000580F681E02DC681D7818A819B8120913C
:10143000AE043091AF042817390710F6809360008E
:1014400090936100DF91CF911F910F91089580914A
:10145000A9048F5F8093A904DF91CF911F910F9111
:1014600008958091C6049091C7042091C4043091DE
:10147000C5043093C7042093C6049093C504809399
:10148000C4048091A7048F5F8093A704E091C604F1
:10149000F091C7048081811107C08FEF9FEF809387
:1014A0006000909361007CCFE091C604F091C70486
:1014B0000580F681E02D0680F781E02D8281938101
:1014C00080936000909361006BCF8FEF9FEF8093CC
:1014D000600090936100DF91CF911F910F9108956B
:1014E000FF920F931F93CF93DF930FB6F8940F9251
:1014F0008091AA0481508093AA048091AA0481114A
:101500004BC08091B004811509F446C08091BB04A2
:10151000811509F45BC0F12CE091C004F091C10485
:10152000C681D781CE010C960E9413038E010E5FF7
:101530001F4FC8010E9413032E898091AC048217AB
:1015400010F42093AC0430E0C901880F991F880F74
:10155000991F880F991F820F931FB80186529B4FC6
:101560000E94BA02E091A404F091A50481E02E89C2
:101570009689291708F480E0F82A8091BB0481112C
:10158000CBCF8091A904811117C081E0F816C1F07A
:101590008091A8048130A1F080E00F900FBEDF9110
:1015A000CF911F910F91FF9008950E94B4098091EF
:1015B000A90481508093A9048091A9048111F5CFD9
:1015C0001092A8040E94BD0381E0E7CF8091A90496
:1015D0008115F1F2F1CFCF93DF93FC019091AA0432
:1015E0009F5F9093AA0420813181E901C60FD71F24
:1015F0008091AE049091AF048217930760F4C217F4
:10160000D30760F0C083D1830E94700A8115E9F08E
:10161000DF91CF910895C217D30738F08091AE04BF
:101620009091AF048C179D0768F7C083D183809198
:10163000A4049091A50402960E941303CE010E9477
:10164000AF070E94700A8111E3CF0E94BD03DF91B2
:10165000CF910895CF93DF9300D0CDB7DEB7009739
:10166000E9F02091AA042F5F2093AA042091AE04F0
:101670003091AF04A901480F591F49835A838091C3
:10168000A4049091A50402960E94130389819A8173
:101690000E94AF070E94700A811102C00E94BD0320
:1016A0000F900F90DF91CF9108958091B104811533
:1016B000E1F38091AA048F5F8093AA04C091B204E1
:1016C0000E94700AC11589F30FB6F8940F92E09149
:1016D000B704F091B804C681D781CE0102960E946A
:1016E00013038091B00481508093B0048091B104C1
:1016F00081508093B1040F900FBE8F89988D0E9406
:101700009702CE010E9497028091B104811569F27F
:10171000D0CF8091AA04811549F081E08093A8047C
:1017200008958091AC0481508093AC048091AC0406
:1017300090E0FC01EE0FFF1FEE0FFF1FEE0FFF1FEB
:10174000E80FF91FE652FB4F8081811551F320917C
:10175000AC0430E0C901880F991F880F991F880FCA
:10176000991F820F931FDC01A652BB4F1196ED917A
:10177000FD910280F381E02DFE93EE931197835249
:101780009B4FE817F90739F0868197819093A5045C
:101790008093A40408950280F381E02D1196ED93C7
:1017A000FD93868197819093A5048093A404089566
:1017B000CF93DF9300D0CDB7DEB769837A83609192
:1017C000A4047091A504645F7F4F0E94DB028091A6
:1017D000A4049091A50402960E9413038091AE0484
:1017E0009091AF0429813A81820F931F0F900F903F
:1017F000DF91CF910C94AF070F931F93CF93DF939B
:10180000FC010580F681E02DC681D7818E01045F41
:101810001F4FC8010E9413038091AA04811128C0A0
:101820000A501109C8010E9413032E898091AC044B
:10183000821720F130E0C901880F991F880F991F86
:10184000880F991F820F931FB80186529B4F0E94E9
:10185000BA02E091A404F091A50481E02E89968952
:10186000291708F480E0DF91CF911F910F9108951F
:10187000B8018BEB94E00E94BA02EBCF2093AC044A
:10188000D9CF2091A704FC0120832091AE04309190
:10189000AF04218332830895FC010FB6F8940F92B0
:1018A0008091A704418152819081981759F08091CD
:1018B000AE049091AF048417950720F081E00F905B
:1018C0000FBE08952091AE043091AF04DB018D91DD
:1018D0009D911297241B350B2817390778F7209113
:1018E000AE043091AF04821B930B840F951F8D9330
:1018F0009D938091A70480838091AE049091AF0462
:101900008183928380E00F900FBE089581E08093E1
:10191000A80408956FEF80E00E940C1041E067E09A
:1019200080E00C949B0F8A3008F00895E82FF0E0D7
:10193000E859FF4F608180E00C94FC0F41E067E0C4
:1019400080E00C94550F40E067E080E00C94550F68
:10195000CF93DF93C5E6D0E0699141E083E00E9438
:101960009B0FFE0141E0629183E00E94550F80E0F1
:10197000C836D80789F7C2E6D0E0699140E083E035
:101980000E949B0FFE0141E0629183E00E94550F8F
:1019900080E0C536D80789F7DF91CF910895AF92DF
:1019A000BF92CF92DF92EF92FF920F931F93CF934C
:1019B000DF93CDB7DEB72A970FB6F894DEBF0FBE20
:1019C000CDBF89E0E2E7F0E0DE01119601900D92D3
:1019D0008A95E1F781E08A8745E6A42E40E0B42E9F
:1019E000C12CD12C40E0F501608183E00E94550FAD
:1019F00032E6E32E30E0F32E00E010E0F7016191D3
:101A00007F01AE01465F5F4F83E00E94E10F8A8550
:101A1000811541F10F5F1F4F0330110579F7FFEF7B
:101A2000AF1ABF0AF50141E0629183E00E94550FB1
:101A30008FEFC81AD80A93E0C916D10499F6F12C91
:101A40008F2D2A960FB6F894DEBF0FBECDBFDF9163
:101A5000CF911F910F91FF90EF90DF90CF90BF90AB
:101A6000AF9008958FE59AEE0197F1F700C000005E
:101A7000AE01465F5F4FF701629183E00E94E10F84
:101A80008A858111C7CFC801880F991F800F911FC8
:101A9000FE013196E80FF91FEC0DFD1DF0800E5987
:101AA0001F4FAE01465F5F4FF801608183E00E94E7
:101AB000E10F8A858115A9F3F601EB59FF4F41E04B
:101AC000608183E00E94550FBBCFCF93DF930F92CD
:101AD000CDB7DEB7898341E061E082E00E94550F17
:101AE000698181E00E94FC0F41E060E082E00E9499
:101AF000550F8FE99FE00197F1F700C0000040E02B
:101B000060E082E00E94550F8FE99FE00197F1F7B6
:101B100000C000000F90DF91CF910895CF93DF9325
:101B20000F92CDB7DEB7898340E061E082E00E948A
:101B3000550F698181E00E94FC0F41E060E082E086
:101B40000E94550F8FE99FE00197F1F700C0000058
:101B500040E060E082E00E94550F8FE99FE001972E
:101B6000F1F700C000000F90DF91CF91089561E080
:101B700081E00E940C1041E060E082E00E949B0F37
:101B800041E061E082E00E949B0F8FE39CE90197B6
:101B9000F1F700C0000088E30E948E0D8FE097E20D
:101BA0000197F1F700C0000088E30E948E0D8FE0DE
:101BB00097E20197F1F700C0000088E30E948E0DC4
:101BC0008FE097E20197F1F700C0000088E00E94E3
:101BD0008E0D8FE097E20197F1F700C0000081E0E1
:101BE0000E948E0D8FE097E20197F1F700C0000090
:101BF00086E00E948E0D8FE097E20197F1F700C01A
:101C000000008CE00E948E0D8FE097E20197F1F7C3
:101C100000C000000895CF93DF93EC01892B49F0B9
:101C20008881811531F021960E94650D899181117D
:101C3000FBCFDF91CF9108954F925F926F927F9289
:101C40008F929F92AF92BF92CF92DF92EF92FF92CC
:101C50000F931F93CF93DF93CDB7DEB72A970FB6BD
:101C6000F894DEBF0FBECDBF6B017C01C114D1045F
:101C7000E104F1040CF445C009F44FC04E018FEFAC
:101C8000881A980A540100E010E038018AE0482ED2
:101C9000512CB601C7019201A3010E945E14605D40
:101CA000F50161935F0169017A01C8010F5F1F4F60
:101CB000C114D104E104F10461F784010F5F1F4FE7
:101CC000080F191FF80182918F010E94650D0815F8
:101CD0001905C1F72A960FB6F894DEBF0FBECDBF27
:101CE000DF91CF911F910F91FF90EF90DF90CF90F8
:101CF000BF90AF909F908F907F906F905F904F902C
:101D000008958DE20E94650DF094E094D094C09403
:101D1000C11CD11CE11CF11CB1CF80E32A960FB687
:101D2000F894DEBF0FBECDBFDF91CF911F910F9111
:101D3000FF90EF90DF90CF90BF90AF909F908F90EB
:101D40007F906F905F904F900C94650D91E06111C2
:101D500001C090E09295990F990F907C890F80684F
:101D60000C948E0D81E00C948E0D82E00C948E0DFF
:101D70000F931F93CF93DF9300D000D00F92CDB776
:101D8000DEB789836C837D834A832B83672B11F0B5
:101D9000883050F00F900F900F900F900F90DF91C0
:101DA000CF911F910F910895880F880F880F80643D
:101DB0000E948E0D0C811D81085F1F4FEC81FD81FB
:101DC0008191EC83FD830E94650D8C819D8180173C
:101DD0009107A1F781E09B819115A9F08295880F69
:101DE000880F807CEA818E0F80680E948E0D898129
:101DF0000F900F900F900F900F90DF91CF911F9148
:101E00000F910C94650D80E0E9CF3E9A3F983D9884
:101E1000359886B1887F86B986B1866086B9379A4B
:101E20000895379A089537980895813220F56115FD
:101E3000710521F197B1907E97B997B1982B97B919
:101E4000369A349BFECF349A3D9B0FC084B195B136
:101E50000024880F991F001C880F991F001C892FD0
:101E6000902DFB0180839183089584B195B1FB018E
:101E700080839183089580E090E0089585E090E06C
:101E8000089508950895BC0180E090E00E949F1499
:101E900020E030E040EA50E40E94DC1420E030E032
:101EA00040E85AE30E94DC1408956830F0F4823070
:101EB00049F170F48115D1F081E001C0880F6A9575
:101EC000EAF798B34130A1F18095892388BB089542
:101ED000833021F581E001C0880F6A95EAF792B35B
:101EE0004130E9F08095892382BB089581E001C0EB
:101EF000880F6A95EAF79BB34130B9F08095892342
:101F00008BBB089581E001C0880F6A95EAF795B30D
:101F1000413041F08095892385BB08950895892B30
:101F200082BB0895892B85BB0895892B8BBB0895AF
:101F3000892B88BB08956830F0F4823049F170F441
:101F40008115D1F081E001C0880F6A95EAF797B357
:101F50004130A1F18095892387BB0895833021F515
:101F600081E001C0880F6A95EAF791B34130E9F04A
:101F70008095892381BB089581E001C0880F6A950F
:101F8000EAF79AB34130B9F0809589238ABB089566
:101F900081E001C0880F6A95EAF794B3413041F0BF
:101FA0008095892384BB08950895892B81BB08956A
:101FB000892B84BB0895892B8ABB0895892B87BB05
:101FC0000895683098F48230A1F020F4811579F0FA
:101FD00086B303C0833079F480B390E002C0959556
:101FE00087956A95E2F78170FA018083089589B335
:101FF000F4CF83B3F2CF0895823049F020F48115F5
:1020000041F068BB0895833031F462BB089565BB2D
:1020100008956BBB08950895823049F020F481152E
:1020200041F067BB0895833031F461BB089564BB10
:1020300008956ABB08950895823069F030F48115DF
:1020400071F086B3FB0180830895833061F480B31F
:10205000FB018083089583B3FB018083089589B3D6
:10206000FB018083089508958130910569F08230E5
:10207000910531F0892B39F48BB780648BBF0895BB
:102080008BB780628BBF08958BB780688BBF089534
:102090000F931F93CF938C01C62F6430F8F48230D6
:1020A000910501F1019798F1C9F440E063E083E004
:1020B0000E949B0F41E063E083E00E94550F85B7CB
:1020C000CC0FCC0F837FC82BC5BFC8010E94341032
:1020D0000FB607FC03C08FB780688FBFCF911F91E9
:1020E0000F9108956230D0F740E062E081E00E94F5
:1020F0009B0F41E062E081E00E94550F84B7C295DA
:10210000CC0FCC0FC07C8F7BC82BC4BFDECF40E090
:1021100062E083E00E949B0F41E062E083E00E9466
:10212000550F85B78C7F8C2B85BFCFCF8130910524
:1021300069F08230910531F0892B39F48BB78F7BB0
:102140008BBF08958BB78F7D8BBF08958BB78F772B
:102150008BBF08958130910579F08230910539F077
:10216000892B49F460930B0570930C0508956093D7
:1021700007057093080508956093090570930A0593
:1021800008951F920F920FB60F9211242F933F9331
:102190004F935F936F937F938F939F93AF93BF936F
:1021A000EF93FF93E0910B05F0910C05309709F048
:1021B0000995FF91EF91BF91AF919F918F917F9181
:1021C0006F915F914F913F912F910F900FBE0F90A4
:1021D0001F9018951F920F920FB60F9211242F93F4
:1021E0003F934F935F936F937F938F939F93AF939F
:1021F000BF93EF93FF93E0910905F0910A053097A3
:1022000009F00995FF91EF91BF91AF919F918F9147
:102210007F916F915F914F913F912F910F900FBEE2
:102220000F901F9018951F920F920FB60F921124C6
:102230002F933F934F935F936F937F938F939F93CE
:10224000AF93BF93EF93FF93E0910705F0910805DB
:10225000309709F00995FF91EF91BF91AF919F9150
:102260008F917F916F915F914F913F912F910F903F
:102270000FBE0F901F901895809317059093180527
:10228000609315057093160513BE82309105E9F031
:1022900070F4892B61F183B7806483BF83B7877F34
:1022A00083BF83B7887F6770862B83BF08950397AA
:1022B000C1F783B7806483BF83B7886083BF83B768
:1022C000887F6770862B83BF089583B78F7B83BF1A
:1022D00083B7886083BF8CE78CBF12BE89B78260EA
:1022E00089BF83B7887F6770862B83BF089583B7C4
:1022F0008F7B83BF83B7877F83BF83E882BF89B724
:10230000816089BF83B7887F6770862B83BF0895FC
:102310000F931F93009719F120911705309118051D
:10232000232BE9F40091110510911205209113055A
:1023300030911405409111055091120560911305DB
:1023400070911405401B510B620B730B4817590712
:102350006105710578F381E01F910F91089580E088
:102360001F910F9108950F931F93009739F02091BB
:102370001705309118052230310521F080E01F91BA
:102380000F910895009111051091120520911305E8
:10239000309114054091110550911205609113057B
:1023A00070911405401B510B620B730B48175907B2
:1023B0006105710578F381E01F910F9108958CBF3D
:1023C000089580930F0590931005089580930D054F
:1023D00090930E05089593B7809115058770987FA7
:1023E000892B83BF089583B7887F83BF08951F9289
:1023F0000F920FB60F9211242F933F934F935F9339
:102400006F937F938F939F93AF93BF93EF93FF93BC
:102410008091110590911205A0911305B0911405BA
:102420000196A11DB11D8093110590931205A093F3
:102430001305B0931405E0910D05F0910E0530974A
:1024400009F00995FF91EF91BF91AF919F918F9105
:102450007F916F915F914F913F912F910F900FBEA0
:102460000F901F9018951F920F920FB60F92112484
:102470002F933F934F935F936F937F938F939F938C
:10248000AF93BF93EF93FF9383E882BF80911105D1
:1024900090911205A0911305B09114050196A11D0C
:1024A000B11D8093110590931205A0931305B0936D
:1024B0001405E0910F05F0911005309709F009958A
:1024C000FF91EF91BF91AF919F918F917F916F910C
:1024D0005F914F913F912F910F900FBE0F901F90E2
:1024E00018951FBC1EBC8E3011F080E008958FB58A
:1024F0008E7F8FBD8FB582608FBD8EB588608EBD9B
:102500008EB580618EBD8FB580688FBD8FB58F7B96
:102510008FBD8FE19EE497BD86BD89B7846089BF7A
:102520008EB56770887F682B6EBD81E00895CF926D
:10253000DF92EF92FF92C0901905D0901A05E090BB
:102540001B05F0901C058431910528F19C01ADEC30
:10255000BCEC0E944F14929582958F7089279F70D2
:102560008927AC0160E070E08091190590911A050F
:10257000A0911B05B0911C058C199D09AE09BF09DE
:1025800084179507A607B70778F381E0FF90EF90CF
:10259000DF90CF90089541E050E060E070E0E4CF3C
:1025A000613011F080E008959BBD8ABD81E00895FF
:1025B0001F921FB61F9211248F939F93AF93BF93C7
:1025C0008091190590911A05A0911B05B0911C05E9
:1025D0000196A11DB11D8093190590931A05A09332
:1025E0001B05B0931C05BF91AF919F918F911F90D8
:1025F0001FBE1F9018959FEF980F973760F496B7FE
:10260000946096BF91B19C7F91B991B191B990E2DC
:1026100090B9880F82B9089584EA86BF80EA96E867
:10262000A1E0B0E004C00197A040B04059F006B668
:1026300007FEF9CF91B1987F81E0983009F480E0EE
:1026400090E0089584E086BF80E190E0089584EAF8
:1026500086BF80EA96E8A1E0B0E004C00197A04000
:10266000B04069F006B607FEF9CF21B1287F81E0BE
:1026700090E0203109F480E0880F991F089584E0EC
:1026800086BF80E190E0089584E986BF0895883789
:10269000F8F4880F83B984E886BF80EA96E8A1E061
:1026A000B0E004C00197A040B040C1F006B607FEFC
:1026B000F9CF81B1887F883171F081B1887F803214
:1026C00091F081B1887F883389F085E090E00895AA
:1026D00081E190E0089583E090E0089584E086BF72
:1026E00080E190E0089584E090E008958FE090E02C
:1026F0000895883700F5880F816083B984E886BF24
:1027000080EA96E8A1E0B0E004C00197A040B040A4
:10271000C1F006B607FEF9CF81B1887F803471F031
:1027200081B1887F883491F081B1887F883389F0C6
:1027300088E090E0089581E190E0089586E090E0DF
:10274000089584E086BF80E190E0089587E090E0FE
:1027500008958FE090E0089583B984E886BF80EA09
:1027600096E8A1E0B0E004C00197A040B040C1F0FD
:1027700006B607FEF9CF81B1887F883271F081B14A
:10278000887F803391F081B1887F883319F08BE0A6
:1027900090E008958FE090E0089589E090E008953A
:1027A00084E086BF80E190E008958AE090E008959B
:1027B000FC01892BB1F084EC86BF40EA56E861E069
:1027C00070E005C0415050406040704091F006B646
:1027D00007FEF8CF91B1987F903531F08EE090E010
:1027E000089582E190E0089583B180838CE090E0C9
:1027F000089584E086BF80E190E00895FC01892B74
:10280000B1F084E886BF40EA56E861E070E005C0B8
:10281000415050406040704091F006B607FEF8CF3E
:1028200091B1987F983531F08EE090E0089582E183
:1028300090E0089583B180838DE090E0089584E076
:1028400086BF80E190E0089541E065E083E00E946A
:102850009B0F62E08EE00E9471128FB780688FBF7D
:10286000C8EED3E061E0CE010E94D01288EE93E082
:102870000E949712E796CD3F87E0D80799F7C9E9FC
:10288000D7E061E0CE010E94D01288EE93E00E9472
:102890009712E797CB3B83E0D80799F7E1CFA29F48
:1028A000B001B39FC001A39F700D811D1124911D24
:1028B000B29F700D811D1124911D0895052E97FB67
:1028C0001EF400940E94751457FD07D00E947D14D9
:1028D00007FC03D04EF40C94751450954095309538
:1028E00021953F4F4F4F5F4F08959095809570957C
:1028F00061957F4F8F4F9F4F0895A1E21A2EAA1B1B
:10290000BB1BFD010DC0AA1FBB1FEE1FFF1FA2179F
:10291000B307E407F50720F0A21BB30BE40BF50B9C
:10292000661F771F881F991F1A9469F76095709525
:10293000809590959B01AC01BD01CF010895E8946D
:1029400009C097FB3EF490958095709561957F4FF7
:102950008F4F9F4F9923A9F0F92F96E9BB279395A5
:10296000F695879577956795B795F111F8CFFAF4B5
:10297000BB0F11F460FF1BC06F5F7F4F8F4F9F4FE6
:1029800016C0882311F096E911C0772321F09EE844
:10299000872F762F05C0662371F096E8862F70E0AA
:1029A00060E02AF09A95660F771F881FDAF7880F84
:1029B0009695879597F908950E94EF140C946015E9
:1029C0000E94521538F00E94591520F0952311F0FD
:1029D0000C9449150C944F1511240C9494150E94D5
:1029E000711570F3959FC1F3950F50E0551F629FCD
:1029F000F001729FBB27F00DB11D639FAA27F00D58
:102A0000B11DAA1F649F6627B00DA11D661F829F7E
:102A10002227B00DA11D621F739FB00DA11D621F63
:102A2000839FA00D611D221F749F3327A00D611D80
:102A3000231F849F600D211D822F762F6A2F112462
:102A40009F5750409AF0F1F088234AF0EE0FFF1F95
:102A5000BB1F661F771F881F91505040A9F79E3FEC
:102A6000510580F00C9449150C9494155F3FE4F3E4
:102A7000983ED4F3869577956795B795F795E79542
:102A80009F5FC1F7FE2B880F911D9695879597F94B
:102A9000089597F99F6780E870E060E008959FEFE0
:102AA00080EC089500240A941616170618060906E5
:102AB000089500240A9412161306140605060895B4
:102AC000092E0394000C11F4882352F0BB0F40F43C
:102AD000BF2B11F460FF04C06F5F7F4F8F4F9F4F7C
:102AE000089557FD9058440F551F59F05F3F71F0FE
:102AF0004795880F97FB991F61F09F3F79F0879565
:102B00000895121613061406551FF2CF4695F1DFED
:102B100008C0161617061806991FF1CF869571057D
:102B2000610508940895E894BB2766277727CB01B1
:102B300097F90895FB01DC0102C001900D9241500C
:102B40005040D8F70895DC0101C06D9341505040CA
:102B5000E0F70895FB01DC014150504048F001903E
:102B60000D920020C9F701C01D9241505040E0F77E
:062B70000895F894FFCF68
:102B7600FFFF000102040506C0F9A4B0999282F88D
:102B8600809031323334353637383949444C450034
:00000001FF
