:100000000C942A000C943F000C943F000C943F0089
:100010000C943F000C943F000C943F000C943F0064
:100020000C943F000C943F000C943F000C943F0054
:100030000C943F000C943F000C943F000C943F0044
:100040000C943F000C943F000C943F000C943F0034
:100050000C943F0011241FBECFE5D8E0DEBFCDBF1A
:1000600010E0A0E6B0E0ECE9F6E002C005900D92E9
:10007000AA37B107D9F70E94DE020C944C030C9406
:1000800000006FEF80E00E94B60241E067E080E090
:100090000C9445028A3008F00895E82FF0E0E05A09
:1000A000FF4F608180E00C94A60241E067E080E0B1
:1000B0000C94FF0140E067E080E00C94FF01CF93D7
:1000C000DF930F92CDB7DEB7898341E061E081E035
:1000D0000E94FF01698180E00E94A60241E060E089
:1000E00081E00E94FF018FE99FE00197F1F700C0D6
:1000F000000040E060E081E00E94FF018FE99FE0A6
:100100000197F1F700C000000F90DF91CF910895A3
:10011000CF93DF930F92CDB7DEB7898340E061E0E4
:1001200081E00E94FF01698180E00E94A60241E017
:1001300060E081E00E94FF018FE99FE00197F1F705
:1001400000C0000040E060E081E00E94FF018FE914
:100150009FE00197F1F700C000000F90DF91CF9171
:10016000089561E080E00E94B60241E060E081E035
:100170000E94450241E061E081E00E9445028FE378
:100180009CE90197F1F700C0000088E30E94880015
:100190008FE097E20197F1F700C0000088E30E942A
:1001A00088008FE097E20197F1F700C0000088E334
:1001B0000E9488008FE097E20197F1F700C00000ED
:1001C00088E00E9488008FE097E20197F1F700C075
:1001D000000081E00E9488008FE097E20197F1F72C
:1001E00000C0000086E00E9488008FE097E201973F
:1001F000F1F700C000008CE00E9488008FE097E2D9
:100200000197F1F700C000000895CF93DF93EC0150
:10021000892B49F08881811531F021960E945F0079
:1002200089918111FBCFDF91CF9108954F925F9219
:100230006F927F928F929F92AF92BF92CF92DF92F6
:10024000EF92FF920F931F93CF93DF93CDB7DEB75B
:100250002A970FB6F894DEBF0FBECDBF6B017C01AD
:10026000C114D104E104F1040CF445C009F44FC0F9
:100270004E018FEF881A980A540100E010E038010F
:100280008AE0482E512CB601C7019201A3010E94B9
:100290000B03605DF50161935F0169017A01C8019B
:1002A0000F5F1F4FC114D104E104F10461F7840111
:1002B0000F5F1F4F080F191FF80182918F010E94D5
:1002C0005F0008151905C1F72A960FB6F894DEBF2E
:1002D0000FBECDBFDF91CF911F910F91FF90EF9097
:1002E000DF90CF90BF90AF909F908F907F906F9056
:1002F0005F904F9008958DE20E945F00F094E0942B
:10030000D094C094C11CD11CE11CF11CB1CF80E37E
:100310002A960FB6F894DEBF0FBECDBFDF91CF9106
:100320001F910F91FF90EF90DF90CF90BF90AF9013
:100330009F908F907F906F905F904F900C945F0094
:1003400091E0611101C090E09295990F990F907C16
:10035000890F80680C94880081E00C94880082E00A
:100360000C9488000F931F93CF93DF9300D000D09D
:100370000F92CDB7DEB789836C837D834A832B834D
:10038000672B11F0883050F00F900F900F900F9066
:100390000F90DF91CF911F910F910895880F880FD3
:1003A000880F80640E9488000C811D81085F1F4FA8
:1003B000EC81FD818191EC83FD830E945F008C8143
:1003C0009D8180179107A1F781E09B819115A9F08C
:1003D0008295880F880F807CEA818E0F80680E944A
:1003E000880089810F900F900F900F900F90DF91F0
:1003F000CF911F910F910C945F0080E0E9CF68309E
:10040000F0F4823049F170F48115D1F081E001C03F
:10041000880F6A95EAF798B34130A1F18095892356
:1004200088BB0895833021F581E001C0880F6A956B
:10043000EAF792B34130E9F08095892382BB0895B1
:1004400081E001C0880F6A95EAF79BB34130B9F0AB
:10045000809589238BBB089581E001C0880F6A9540
:10046000EAF795B3413041F08095892385BB089523
:100470000895892B82BB0895892B85BB0895892B0C
:100480008BBB0895892B88BB08956830F0F48230C7
:1004900049F170F48115D1F081E001C0880F6A95AF
:1004A000EAF797B34130A1F18095892387BB08957E
:1004B000833021F581E001C0880F6A95EAF791B396
:1004C0004130E9F08095892381BB089581E001C026
:1004D000880F6A95EAF79AB34130B9F0809589237D
:1004E0008ABB089581E001C0880F6A95EAF794B34A
:1004F000413041F08095892384BB08950895892B6C
:1005000081BB0895892B84BB0895892B8ABB0895EC
:10051000892B87BB0895683098F48230A1F020F4CD
:10052000811579F086B303C0833079F480B390E00D
:1005300002C0959587956A95E2F78170FA018083EC
:10054000089589B3F4CF83B3F2CF0895823049F090
:1005500020F4811541F068BB0895833031F462BB0B
:10056000089565BB08956BBB08950895823049F0E6
:1005700020F4811541F067BB0895833031F461BBED
:10058000089564BB08956ABB08950895823069F0A8
:1005900030F4811571F086B3FB01808308958330B8
:1005A00061F480B3FB018083089583B3FB018083F2
:1005B000089589B3FB01808308950895CDB7DEB710
:1005C00060970FB6F894DEBF0FBECDBF88E0E2E7BC
:1005D000F0E0DE01199601900D928A95E1F788E02E
:1005E000EAE6F0E0DE01119601900D928A95E1F7BE
:1005F0000E94B10020E040E0BE01675F7F4F80E0D5
:100600000E94B20121E040E0BE016F5F7F4F81E0B8
:100610000E94B201FFCF052E97FB1EF400940E94AA
:10062000220357FD07D00E942A0307FC03D04EF493
:100630000C94220350954095309521953F4F4F4F94
:100640005F4F089590958095709561957F4F8F4F7E
:100650009F4F0895A1E21A2EAA1BBB1BFD010DC0DE
:10066000AA1FBB1FEE1FFF1FA217B307E407F50762
:1006700020F0A21BB30BE40BF50B661F771F881F3E
:10068000991F1A9469F760957095809590959B01D4
:0C069000AC01BD01CF010895F894FFCF2C
:10069C00C0F9A4B0999282F8809000001A15151533
:0A06AC001500111B151111111100AA
:00000001FF
