:100000000C942A000C943F000C943F000C943F0089
:100010000C943F000C943F000C943F000C943F0064
:100020000C943F000C943F000C943F000C943F0054
:100030000C943F000C943F000C943F000C943F0044
:100040000C943F000C943F000C943F000C943F0034
:100050000C943F0011241FBECFE5D8E0DEBFCDBF1A
:1000600010E0A0E6B0E0EEEEFAE002C005900D92DE
:10007000AA37B107D9F70E94FF040C9475050C94B8
:1000800000006FEF80E00E94D70441E067E080E06D
:100090000C9466048A3008F00895E82FF0E0EA59DD
:1000A000FF4F608180E00C94C70441E067E080E08E
:1000B0000C94200440E067E080E00C942004CF938F
:1000C000DF93C3E6D0E0699141E083E00E946604DB
:1000D000FE0141E0629183E00E94200480E0C63688
:1000E000D80789F7C0E6D0E0699140E083E00E943C
:1000F0006604FE0141E0629183E00E94200480E0FA
:10010000C336D80789F7DF91CF910895AF92BF9298
:10011000CF92DF92EF92FF920F931F93CF93DF93D3
:10012000CDB7DEB72A970FB6F894DEBF0FBECDBFAE
:1001300089E0E0E7F0E0DE01119601900D928A95EA
:10014000E1F781E08A8743E6A42E40E0B42EC12C7B
:10015000D12C40E0F501608183E00E94200430E66C
:10016000E32E30E0F32E00E010E0F70161917F0113
:10017000AE01465F5F4F83E00E94AC048A85811523
:1001800041F10F5F1F4F0330110579F7FFEFAF1AF1
:10019000BF0AF50141E0629183E00E9420048FEFE5
:1001A000C81AD80A93E0C916D10499F6F12C8F2DFC
:1001B0002A960FB6F894DEBF0FBECDBFDF91CF9168
:1001C0001F910F91FF90EF90DF90CF90BF90AF9075
:1001D00008958FE59AEE0197F1F700C00000AE0197
:1001E000465F5F4FF701629183E00E94AC048A850D
:1001F0008111C7CFC801880F991F800F911FFE0181
:100200003196E80FF91FEC0DFD1DF080005A1F4FCD
:10021000AE01465F5F4FF801608183E00E94AC044D
:100220008A858115A9F3F601ED59FF4F41E0608100
:1002300083E00E942004BBCFCF93DF930F92CDB712
:10024000DEB7898341E061E082E00E942004698199
:1002500081E00E94C70441E060E082E00E94200447
:100260008FE99FE00197F1F700C0000040E060E0F7
:1002700082E00E9420048FE99FE00197F1F700C01F
:1002800000000F90DF91CF910895CF93DF930F92ED
:10029000CDB7DEB7898340E061E082E00E942004B0
:1002A000698181E00E94C70441E060E082E00E9431
:1002B00020048FE99FE00197F1F700C0000040E0C3
:1002C00060E082E00E9420048FE99FE00197F1F74F
:1002D00000C000000F90DF91CF91089561E081E0B0
:1002E0000E94D70441E060E082E00E94660441E0A1
:1002F00061E082E00E9466048FE39CE90197F1F7D8
:1003000000C0000088E30E9445018FE097E201975A
:10031000F1F700C0000088E30E9445018FE097E2FA
:100320000197F1F700C0000088E30E9445018FE0CB
:1003300097E20197F1F700C0000088E00E944501B4
:100340008FE097E20197F1F700C0000081E00E9482
:1003500045018FE097E20197F1F700C0000086E0C9
:100360000E9445018FE097E20197F1F700C000007D
:100370008CE00E9445018FE097E20197F1F700C001
:1003800000000895CF93DF93EC01892B49F0888119
:10039000811531F021960E941C0189918111FBCFBA
:1003A000DF91CF9108954F925F926F927F928F92DB
:1003B0009F92AF92BF92CF92DF92EF92FF920F93F4
:1003C0001F93CF93DF93CDB7DEB72A970FB6F8947C
:1003D000DEBF0FBECDBF6B017C01C114D104E104AF
:1003E000F1040CF445C009F44FC04E018FEF881A98
:1003F000980A540100E010E038018AE0482E512CA0
:10040000B601C7019201A3010E943405605DF501A8
:1004100061935F0169017A01C8010F5F1F4FC11429
:10042000D104E104F10461F784010F5F1F4F080F4D
:10043000191FF80182918F010E941C0108151905EE
:10044000C1F72A960FB6F894DEBF0FBECDBFDF917D
:10045000CF911F910F91FF90EF90DF90CF90BF90C1
:10046000AF909F908F907F906F905F904F90089586
:100470008DE20E941C01F094E094D094C094C11CC1
:10048000D11CE11CF11CB1CF80E32A960FB6F89481
:10049000DEBF0FBECDBFDF91CF911F910F91FF90B7
:1004A000EF90DF90CF90BF90AF909F908F907F9014
:1004B0006F905F904F900C941C0191E0611101C00E
:1004C00090E09295990F990F907C890F80680C9419
:1004D000450181E00C94450182E00C9445010F93A5
:1004E0001F93CF93DF9300D000D00F92CDB7DEB72C
:1004F00089836C837D834A832B83672B11F088303B
:1005000050F00F900F900F900F900F90DF91CF91C0
:100510001F910F910895880F880F880F80640E94A3
:1005200045010C811D81085F1F4FEC81FD81819188
:10053000EC83FD830E941C018C819D8180179107B3
:10054000A1F781E09B819115A9F08295880F880F12
:10055000807CEA818E0F80680E94450189810F901E
:100560000F900F900F900F90DF91CF911F910F91EF
:100570000C941C0180E0E9CF6FEF80E00E94C7047B
:1005800040E060E080E00E9420042FEF80E792E0EE
:10059000215080409040E1F700C0000040E061E061
:1005A00080E00E9420042FEF80E792E021508040FD
:1005B0009040E1F700C0000040E062E080E00E946F
:1005C00020042FEF80E792E0215080409040E1F737
:1005D00000C0000040E063E080E00E9420042FEFB4
:1005E00080E792E0215080409040E1F700C0000099
:1005F00040E064E080E00E9420042FEF80E792E07A
:10060000215080409040E1F700C0000040E065E0EC
:1006100080E00E9420042FEF80E792E0215080408C
:100620009040E1F700C0000040E066E080E00E94FA
:1006300020042FEF80E792E0215080409040E1F7C6
:1006400000C0000040E067E080E00E9420042FEF3F
:1006500080E792E0215080409040E1F700C0000028
:1006600008950F931F93CF93DF9303E010E0CFEF34
:100670006C2F80E00E94C7042FEF80E792E02150AA
:1006800080409040E1F700C00000DC2FC0956C2F47
:1006900080E00E94C7042FEF80E792E02150804065
:1006A0009040E1F700C000006D2F80E00E94C70479
:1006B0002FEF80E792E0215080409040E1F700C0AA
:1006C000000001501040A1F6DF91CF911F910F91D2
:1006D00008950F931F93CF93DF9303E010E0CFE0D3
:1006E0006C2F80E00E94C7042FEF80E792E021503A
:1006F00080409040E1F700C00000DC2FC0956C2FD7
:1007000080E00E94C7042FEF80E792E021508040F4
:100710009040E1F700C000006D2F80E00E94C70408
:100720002FEF80E792E0215080409040E1F700C039
:10073000000001501040A1F6DF91CF911F910F9161
:1007400008950F931F93CF93DF9303E010E0CAEA5D
:100750006C2F80E00E94C7042FEF80E792E02150C9
:1007600080409040E1F700C00000DC2FC0956C2F66
:1007700080E00E94C7042FEF80E792E02150804084
:100780009040E1F700C000006D2F80E00E94C70498
:100790002FEF80E792E0215080409040E1F700C0C9
:1007A000000001501040A1F6DF91CF911F910F91F1
:1007B0000895CF9360E080E00E94C704C0E041E06C
:1007C0006C2F80E00E9420042FEF80E792E0215000
:1007D00080409040E1F700C00000CF5FC83079F75B
:1007E00040E06C2F80E00E9420042FEF80E792E031
:1007F000215080409040E1F700C00000C15080F7D8
:10080000CF910895482F4053550B8333B9F04430AE
:10081000510534F089F04530510551F40C94D90359
:100820004130510539F04230510519F40C9431032F
:10083000089508950C94BC020C94A1030C946903D0
:100840006830F0F4823049F170F48115D1F081E024
:1008500001C0880F6A95EAF798B34130A1F18095FD
:10086000892388BB0895833021F581E001C0880F7A
:100870006A95EAF792B34130E9F08095892382BB0B
:10088000089581E001C0880F6A95EAF79BB3413073
:10089000B9F0809589238BBB089581E001C0880F52
:1008A0006A95EAF795B3413041F08095892385BB7D
:1008B00008950895892B82BB0895892B85BB0895DF
:1008C000892B8BBB0895892B88BB08956830F0F481
:1008D000823049F170F48115D1F081E001C0880FB8
:1008E0006A95EAF797B34130A1F18095892387BBD8
:1008F0000895833021F581E001C0880F6A95EAF7F9
:1009000091B34130E9F08095892381BB089581E05E
:1009100001C0880F6A95EAF79AB34130B9F0809523
:1009200089238ABB089581E001C0880F6A95EAF7A0
:1009300094B3413041F08095892384BB0895089594
:10094000892B81BB0895892B84BB0895892B8ABB91
:100950000895892B87BB0895683098F48230A1F000
:1009600020F4811579F086B303C0833079F480B325
:1009700090E002C0959587956A95E2F78170FA013B
:100980008083089589B3F4CF83B3F2CF0895823082
:1009900049F020F4811541F068BB0895833031F4AB
:1009A00062BB089565BB08956BBB089508958230BE
:1009B00049F020F4811541F067BB0895833031F48C
:1009C00061BB089564BB08956ABB089508958230A1
:1009D00069F030F4811571F086B3FB0180830895CE
:1009E000833061F480B3FB018083089583B3FB01FE
:1009F0008083089589B3FB018083089508956FEF84
:100A000080E00E94D7046FEF80E00E94C7040E943C
:100A10005F000E9486000E948600482F4053550BBD
:100A2000833391F04430510594F441305105B1F0D5
:100A30004230510581F70E9431030E948600482F01
:100A40004053550B833371F70E946903E4CF49F09B
:100A50004530510501F70E94D903DDCF0E94BC0249
:100A6000DACF0E94A103D7CF052E97FB1EF4009486
:100A70000E944B0557FD07D00E94530507FC03D089
:100A80004EF40C944B0550954095309521953F4F71
:100A90004F4F5F4F089590958095709561957F4F6A
:100AA0008F4F9F4F0895A1E21A2EAA1BBB1BFD0179
:100AB0000DC0AA1FBB1FEE1FFF1FA217B307E4073D
:100AC000F50720F0A21BB30BE40BF50B661F771F95
:100AD000881F991F1A9469F7609570958095909575
:0E0AE0009B01AC01BD01CF010895F894FFCF3A
:100AEE00000102040506C0F9A4B0999282F8809024
:0A0AFE003132333435363738390011
:00000001FF
