:100000000C942A000C943F000C943F000C943F0089
:100010000C943F000C943F000C943F000C943F0064
:100020000C943F000C943F000C943F000C943F0054
:100030000C943F000C943F000C943F000C943F0044
:100040000C943F000C943F000C943F000C943F0034
:100050000C943F0011241FBECFE5D8E0DEBFCDBF1A
:1000600010E0A0E6B0E0E6E2F8E002C005900D92F4
:10007000A238B107D9F70E949B030C9411040C9489
:1000800000006FEF80E00E94730341E067E080E0D2
:100090000C9402038A3008F00895E82FF0E0E85944
:1000A000FF4F608180E00C94630341E067E080E0F3
:1000B0000C94BC0240E067E080E00C94BC02CF935B
:1000C000DF93C4E6D0E0699141E083E00E9402033F
:1000D000FE0141E0629183E00E94BC0280E0C836EC
:1000E000D80789F7C0E6D0E0699140E083E00E943C
:1000F0000203FE0141E0629183E00E94BC0280E0C5
:10010000C436D80789F7DF91CF910895AF92BF9297
:10011000CF92DF92EF92FF920F931F93CF93DF93D3
:10012000CDB7DEB761970FB6F894DEBF0FBECDBF77
:1001300080E1E2E7F0E0DE01119601900D928A95F0
:10014000E1F781E0898B24E6A22E20E0B22EC12CBB
:10015000D12C40E0F501608183E00E94BC0290E672
:10016000E92E90E0F92E00E010E0F70161917F01A7
:10017000AE014F5E5F4F83E00E944803898981157D
:1001800041F10F5F1F4F0430110579F7FFEFAF1AF0
:10019000BF0AF50141E0629183E00E94BC028FEF4B
:1001A000C81AD80A94E0C916D10499F6F12C8F2DFB
:1001B00061960FB6F894DEBF0FBECDBFDF91CF9131
:1001C0001F910F91FF90EF90DF90CF90BF90AF9075
:1001D00008958FE59AEE0197F1F700C00000AE0197
:1001E0004F5E5F4FF701629183E00E944803898967
:1001F0008111C7CFF801EE0FFF1FEE0FFF1FCE01D9
:100200000196E80FF91FEC0DFD1DF080005A1F4FFD
:10021000AE014F5E5F4FF801608183E00E944803AA
:1002200089898115A9F3F601EC59FF4F41E06081FE
:1002300083E00E94BC02BBCFCF93DF930F92CDB778
:10024000DEB7898341E061E081E00E94BC02698100
:1002500080E00E94630341E060E081E00E94BC0214
:100260008FE99FE00197F1F700C0000040E060E0F7
:1002700081E00E94BC028FE99FE00197F1F700C086
:1002800000000F90DF91CF910895CF93DF930F92ED
:10029000CDB7DEB7898340E061E081E00E94BC0217
:1002A000698180E00E94630341E060E081E00E9498
:1002B000BC028FE99FE00197F1F700C0000040E029
:1002C00060E081E00E94BC028FE99FE00197F1F7B6
:1002D00000C000000F90DF91CF91089561E080E0B1
:1002E0000E94730341E060E081E00E94020341E06C
:1002F00061E081E00E9402038FE39CE90197F1F73E
:1003000000C0000088E30E9445018FE097E201975A
:10031000F1F700C0000088E30E9445018FE097E2FA
:100320000197F1F700C0000088E30E9445018FE0CB
:1003300097E20197F1F700C0000088E00E944501B4
:100340008FE097E20197F1F700C0000081E00E9482
:1003500045018FE097E20197F1F700C0000086E0C9
:100360000E9445018FE097E20197F1F700C000007D
:100370008CE00E9445018FE097E20197F1F700C001
:1003800000000895CF93DF93EC01892B49F0888119
:10039000811531F021960E941C0189918111FBCFBA
:1003A000DF91CF9108954F925F926F927F928F92DB
:1003B0009F92AF92BF92CF92DF92EF92FF920F93F4
:1003C0001F93CF93DF93CDB7DEB72A970FB6F8947C
:1003D000DEBF0FBECDBF6B017C01C114D104E104AF
:1003E000F1040CF445C009F44FC04E018FEF881A98
:1003F000980A540100E010E038018AE0482E512CA0
:10040000B601C7019201A3010E94D003605DF5010E
:1004100061935F0169017A01C8010F5F1F4FC11429
:10042000D104E104F10461F784010F5F1F4F080F4D
:10043000191FF80182918F010E941C0108151905EE
:10044000C1F72A960FB6F894DEBF0FBECDBFDF917D
:10045000CF911F910F91FF90EF90DF90CF90BF90C1
:10046000AF909F908F907F906F905F904F90089586
:100470008DE20E941C01F094E094D094C094C11CC1
:10048000D11CE11CF11CB1CF80E32A960FB6F89481
:10049000DEBF0FBECDBFDF91CF911F910F91FF90B7
:1004A000EF90DF90CF90BF90AF909F908F907F9014
:1004B0006F905F904F900C941C0191E0611101C00E
:1004C00090E09295990F990F907C890F80680C9419
:1004D000450181E00C94450182E00C9445010F93A5
:1004E0001F93CF93DF9300D000D00F92CDB7DEB72C
:1004F00089836C837D834A832B83672B11F088303B
:1005000050F00F900F900F900F900F90DF91CF91C0
:100510001F910F910895880F880F880F80640E94A3
:1005200045010C811D81085F1F4FEC81FD81819188
:10053000EC83FD830E941C018C819D8180179107B3
:10054000A1F781E09B819115A9F08295880F880F12
:10055000807CEA818E0F80680E94450189810F901E
:100560000F900F900F900F90DF91CF911F910F91EF
:100570000C941C0180E0E9CF6830F0F4823049F13E
:1005800070F48115D1F081E001C0880F6A95EAF717
:1005900098B34130A1F18095892388BB08958330B9
:1005A00021F581E001C0880F6A95EAF792B34130E6
:1005B000E9F08095892382BB089581E001C0880F0E
:1005C0006A95EAF79BB34130B9F0809589238BBBDC
:1005D000089581E001C0880F6A95EAF795B341302C
:1005E00041F08095892385BB08950895892B82BBAE
:1005F0000895892B85BB0895892B8BBB0895892B82
:1006000088BB08956830F0F4823049F170F48115A8
:10061000D1F081E001C0880F6A95EAF797B34130C5
:10062000A1F18095892387BB0895833021F581E06E
:1006300001C0880F6A95EAF791B34130E9F08095DF
:10064000892381BB089581E001C0880F6A95EAF78C
:100650009AB34130B9F0809589238ABB089581E02F
:1006600001C0880F6A95EAF794B3413041F0809554
:10067000892384BB08950895892B81BB0895892B14
:1006800084BB0895892B8ABB0895892B87BB089565
:10069000683098F48230A1F020F4811579F086B3A7
:1006A00003C0833079F480B390E002C095958795BC
:1006B0006A95E2F78170FA018083089589B3F4CFD7
:1006C00083B3F2CF0895823049F020F4811541F0D0
:1006D00068BB0895833031F462BB089565BB08950B
:1006E0006BBB08950895823049F020F4811541F0E4
:1006F00067BB0895833031F461BB089564BB0895EE
:100700006ABB08950895823069F030F4811571F064
:1007100086B3FB0180830895833061F480B3FB01CD
:100720008083089583B3FB018083089589B3FB011F
:100730008083089508950F92CDB7DEB741E060E061
:1007400080E00E94020341E060E080E00E94BC0281
:1007500040E060E083E00E94020341E060E083E06B
:100760000E94BC0281E08983AE014F5F5F4F60E071
:1007700083E00E944803AE014F5F5F4F60E083E07B
:100780000E9448038981811105C040E060E00E9419
:10079000BC02F1CF41E060E080E00E94BC02EBCF00
:1007A000052E97FB1EF400940E94E70357FD07D027
:1007B0000E94EF0307FC03D04EF40C94E70350951E
:1007C0004095309521953F4F4F4F5F4F089590953D
:1007D0008095709561957F4F8F4F9F4F0895A1E24F
:1007E0001A2EAA1BBB1BFD010DC0AA1FBB1FEE1FAB
:1007F000FF1FA217B307E407F50720F0A21BB30BF6
:10080000E40BF50B661F771F881F991F1A9469F771
:1008100060957095809590959B01AC01BD01CF01CD
:060820000895F894FFCFDB
:100826000001020304050607C0F9A4B0999282F8F4
:100836008090313233343536373839304143554577
:02084600464822
:00000001FF
