:100000000C942A000C9447000C9447000C94470071
:100010000C9447000C9447000C9447000C94470044
:100020000C9447000C9447000C9447000C94030474
:100030000C9447000C9447000C9447000C94470024
:100040000C9447000C9447000C9447000C94470014
:100050000C94470011241FBECFE5D8E0DEBFCDBF12
:1000600010E0A0E6B0E0E0E8F9E002C005900D92F3
:10007000AA37B107D9F720E0AAE7B0E001C01D9286
:10008000A038B207E1F70E9459040C94BE040C9406
:1000900000006FEF80E00E94B90341E067E080E07C
:1000A0000C9448038A3008F00895E82FF0E0E959ED
:1000B000FF4F608180E00C94A90341E067E080E09D
:1000C0000C94020340E067E080E00C940203CF93BD
:1000D000DF93C3E6D0E0699141E083E00E944803EA
:1000E000FE0141E0629183E00E94020380E0C63697
:1000F000D80789F7C0E6D0E0699140E083E00E942C
:100100004803FE0141E0629183E00E94020380E027
:10011000C336D80789F7DF91CF910895AF92BF9288
:10012000CF92DF92EF92FF920F931F93CF93DF93C3
:10013000CDB7DEB72A970FB6F894DEBF0FBECDBF9E
:1001400089E0E1E7F0E0DE01119601900D928A95D9
:10015000E1F781E08A8743E6A42E40E0B42EC12C6B
:10016000D12C40E0F501608183E00E94020330E67B
:10017000E32E30E0F32E00E010E0F70161917F0103
:10018000AE01465F5F4F83E00E948E038A85811532
:1001900041F10F5F1F4F0330110579F7FFEFAF1AE1
:1001A000BF0AF50141E0629183E00E9402038FEFF4
:1001B000C81AD80A93E0C916D10499F6F12C8F2DEC
:1001C0002A960FB6F894DEBF0FBECDBFDF91CF9158
:1001D0001F910F91FF90EF90DF90CF90BF90AF9065
:1001E00008958FE59AEE0197F1F700C00000AE0187
:1001F000465F5F4FF701629183E00E948E038A851C
:100200008111C7CFC801880F991F800F911FFE0170
:100210003196E80FF91FEC0DFD1DF080005A1F4FBD
:10022000AE01465F5F4FF801608183E00E948E035C
:100230008A858115A9F3F601ED59FF4F41E06081F0
:1002400083E00E940203BBCFCF93DF930F92CDB721
:10025000DEB7898341E061E082E00E9402036981A8
:1002600081E00E94A90341E060E082E00E94020375
:100270008FE99FE00197F1F700C0000040E060E0E7
:1002800082E00E9402038FE99FE00197F1F700C02E
:1002900000000F90DF91CF910895CF93DF930F92DD
:1002A000CDB7DEB7898340E061E082E00E940203BF
:1002B000698181E00E94A90341E060E082E00E9440
:1002C00002038FE99FE00197F1F700C0000040E0D2
:1002D00060E082E00E9402038FE99FE00197F1F75E
:1002E00000C000000F90DF91CF91089561E081E0A0
:1002F0000E94B90341E060E082E00E94480341E0CF
:1003000061E082E00E9448038FE39CE90197F1F7E6
:1003100000C0000088E30E944D018FE097E2019742
:10032000F1F700C0000088E30E944D018FE097E2E2
:100330000197F1F700C0000088E30E944D018FE0B3
:1003400097E20197F1F700C0000088E00E944D019C
:100350008FE097E20197F1F700C0000081E00E9472
:100360004D018FE097E20197F1F700C0000086E0B1
:100370000E944D018FE097E20197F1F700C0000065
:100380008CE00E944D018FE097E20197F1F700C0E9
:1003900000000895CF93DF93EC01892B49F0888109
:1003A000811531F021960E94240189918111FBCFA2
:1003B000DF91CF9108954F925F926F927F928F92CB
:1003C0009F92AF92BF92CF92DF92EF92FF920F93E4
:1003D0001F93CF93DF93CDB7DEB72A970FB6F8946C
:1003E000DEBF0FBECDBF6B017C01C114D104E1049F
:1003F000F1040CF445C009F44FC04E018FEF881A88
:10040000980A540100E010E038018AE0482E512C8F
:10041000B601C7019201A3010E947D04605DF50150
:1004200061935F0169017A01C8010F5F1F4FC11419
:10043000D104E104F10461F784010F5F1F4F080F3D
:10044000191FF80182918F010E94240108151905D6
:10045000C1F72A960FB6F894DEBF0FBECDBFDF916D
:10046000CF911F910F91FF90EF90DF90CF90BF90B1
:10047000AF909F908F907F906F905F904F90089576
:100480008DE20E942401F094E094D094C094C11CA9
:10049000D11CE11CF11CB1CF80E32A960FB6F89471
:1004A000DEBF0FBECDBFDF91CF911F910F91FF90A7
:1004B000EF90DF90CF90BF90AF909F908F907F9004
:1004C0006F905F904F900C94240191E0611101C0F6
:1004D00090E09295990F990F907C890F80680C9409
:1004E0004D0181E00C944D0182E00C944D010F937D
:1004F0001F93CF93DF9300D000D00F92CDB7DEB71C
:1005000089836C837D834A832B83672B11F088302A
:1005100050F00F900F900F900F900F90DF91CF91B0
:100520001F910F910895880F880F880F80640E9493
:100530004D010C811D81085F1F4FEC81FD81819170
:10054000EC83FD830E9424018C819D81801791079B
:10055000A1F781E09B819115A9F08295880F880F02
:10056000807CEA818E0F80680E944D0189810F9006
:100570000F900F900F900F90DF91CF911F910F91DF
:100580000C94240180E0E9CF3E9A3F983D9835983D
:1005900086B1887F86B986B1866086B9379A089514
:1005A000379A089537980895813220F561157105BD
:1005B00021F197B1907E97B997B1982B97B9369A58
:1005C000349BFECF349A3D9B0FC084B195B100247B
:1005D000880F991F001C880F991F001C892F902DD0
:1005E000FB0180839183089584B195B1FB018083E1
:1005F0009183089580E090E0089585E090E008956B
:10060000089508956830F0F4823049F170F481154E
:10061000D1F081E001C0880F6A95EAF798B34130C4
:10062000A1F18095892388BB0895833021F581E06D
:1006300001C0880F6A95EAF792B34130E9F08095DE
:10064000892382BB089581E001C0880F6A95EAF78B
:100650009BB34130B9F0809589238BBB089581E02D
:1006600001C0880F6A95EAF795B3413041F0809553
:10067000892385BB08950895892B82BB0895892B12
:1006800085BB0895892B8BBB0895892B88BB089562
:100690006830F0F4823049F170F48115D1F081E0D6
:1006A00001C0880F6A95EAF797B34130A1F18095B0
:1006B000892387BB0895833021F581E001C0880F2D
:1006C0006A95EAF791B34130E9F08095892381BBBF
:1006D000089581E001C0880F6A95EAF79AB3413026
:1006E000B9F0809589238ABB089581E001C0880F05
:1006F0006A95EAF794B3413041F08095892384BB31
:1007000008950895892B81BB0895892B84BB089592
:10071000892B8ABB0895892B87BB0895683098F48C
:100720008230A1F020F4811579F086B303C08330C4
:1007300079F480B390E002C0959587956A95E2F7C9
:100740008170FA018083089589B3F4CF83B3F2CF27
:100750000895823049F020F4811541F068BB089576
:10076000833031F462BB089565BB08956BBB089577
:100770000895823049F020F4811541F067BB089557
:10078000833031F461BB089564BB08956ABB08955A
:100790000895823069F030F4811571F086B3FB0161
:1007A00080830895833061F480B3FB0180830895D2
:1007B00083B3FB018083089589B3FB01808308958F
:1007C000089583B7877897EE92BF99B7916099BFE4
:1007D000826083BF8FB780688FBF81E00895909358
:1007E0007F0080937E0080917E0090917F00892B16
:1007F000D1F781E008958CBF81E0089580937C005B
:1008000090937D0008951F920F920FB60F921124BE
:100810002F933F934F935F936F937F938F939F9308
:10082000AF93BF93EF93FF9387EE82BF80917B00DE
:100830008F5F853060F580937B0080917A008F5FB9
:1008400080937A00909166009817F8F0C39A80918F
:100850007A00843610F010927A00E0917C00F091DA
:100860007D00309709F00995FF91EF91BF91AF910D
:100870009F918F917F916F915F914F913F912F91B8
:100880000F900FBE0F901F901895C398E0CF109255
:100890007B0080917E0090917F00892B71F2809186
:1008A0007E0090917F00019790937F0080937E005F
:1008B000C4CF0E94E1030E94C40241E061E080E0F5
:1008C0000E94480340E060E080E00E94480315E099
:1008D000CAE0D7E0109366008CED95E00E94EF032C
:1008E000D09366008CED95E00E94EF03C093660004
:1008F0008CED95E00E94EF03EDCF052E97FB1EF4E3
:1009000000940E94940457FD07D00E949C0407FCA9
:1009100003D04EF40C949404509540953095219555
:100920003F4F4F4F5F4F089590958095709561951B
:100930007F4F8F4F9F4F0895A1E21A2EAA1BBB1B1A
:10094000FD010DC0AA1FBB1FEE1FFF1FA217B3079B
:10095000E407F50720F0A21BB30BE40BF50B661FB1
:10096000771F881F991F1A9469F760957095809575
:1009700090959B01AC01BD01CF010895F894FFCF84
:1009800000010204050607C0F9A4B0999282F8801C
:0A09900090313233343536373839F0
:00000001FF
