:100000000C942A000C9486040C94AF040C94D8042D
:100010000C9447000C9447000C9447000C94470044
:100020000C9447000C9496050C9447000C941D0505
:100030000C9447000C9447000C9447000C94470024
:100040000C9447000C9447000C9447000C94470014
:100050000C94470011241FBECFE5D8E0DEBFCDBF12
:1000600010E0A0E6B0E0EEE5FEE002C005900D92E3
:10007000AA37B107D9F720E0AAE7B0E001C01D9286
:10008000A738B207E1F70E94E4050C942D070C9401
:1000900000006FEF80E00E94E80341E067E080E04D
:1000A0000C9477038A3008F00895E82FF0E0EA59BD
:1000B000FF4F608180E00C94D80341E067E080E06E
:1000C0000C94310340E067E080E00C943103CF935F
:1000D000DF93C3E6D0E0699141E083E00E947703BB
:1000E000FE0141E0629183E00E94310380E0C63668
:1000F000D80789F7C0E6D0E0699140E083E00E942C
:100100007703FE0141E0629183E00E94310380E0C9
:10011000C336D80789F7DF91CF910895AF92BF9288
:10012000CF92DF92EF92FF920F931F93CF93DF93C3
:10013000CDB7DEB72A970FB6F894DEBF0FBECDBF9E
:1001400089E0E0E7F0E0DE01119601900D928A95DA
:10015000E1F781E08A8743E6A42E40E0B42EC12C6B
:10016000D12C40E0F501608183E00E94310330E64C
:10017000E32E30E0F32E00E010E0F70161917F0103
:10018000AE01465F5F4F83E00E94BD038A85811503
:1001900041F10F5F1F4F0330110579F7FFEFAF1AE1
:1001A000BF0AF50141E0629183E00E9431038FEFC5
:1001B000C81AD80A93E0C916D10499F6F12C8F2DEC
:1001C0002A960FB6F894DEBF0FBECDBFDF91CF9158
:1001D0001F910F91FF90EF90DF90CF90BF90AF9065
:1001E00008958FE59AEE0197F1F700C00000AE0187
:1001F000465F5F4FF701629183E00E94BD038A85ED
:100200008111C7CFC801880F991F800F911FFE0170
:100210003196E80FF91FEC0DFD1DF080005A1F4FBD
:10022000AE01465F5F4FF801608183E00E94BD032D
:100230008A858115A9F3F601ED59FF4F41E06081F0
:1002400083E00E943103BBCFCF93DF930F92CDB7F2
:10025000DEB7898341E061E082E00E943103698179
:1002600081E00E94D80341E060E082E00E94310317
:100270008FE99FE00197F1F700C0000040E060E0E7
:1002800082E00E9431038FE99FE00197F1F700C0FF
:1002900000000F90DF91CF910895CF93DF930F92DD
:1002A000CDB7DEB7898340E061E082E00E94310390
:1002B000698181E00E94D80341E060E082E00E9411
:1002C00031038FE99FE00197F1F700C0000040E0A3
:1002D00060E082E00E9431038FE99FE00197F1F72F
:1002E00000C000000F90DF91CF91089561E081E0A0
:1002F0000E94E80341E060E082E00E94770341E071
:1003000061E082E00E9477038FE39CE90197F1F7B7
:1003100000C0000088E30E944D018FE097E2019742
:10032000F1F700C0000088E30E944D018FE097E2E2
:100330000197F1F700C0000088E30E944D018FE0B3
:1003400097E20197F1F700C0000088E00E944D019C
:100350008FE097E20197F1F700C0000081E00E9472
:100360004D018FE097E20197F1F700C0000086E0B1
:100370000E944D018FE097E20197F1F700C0000065
:100380008CE00E944D018FE097E20197F1F700C0E9
:1003900000000895CF93DF93EC01892B49F0888109
:1003A000811531F021960E94240189918111FBCFA2
:1003B000DF91CF9108954F925F926F927F928F92CB
:1003C0009F92AF92BF92CF92DF92EF92FF920F93E4
:1003D0001F93CF93DF93CDB7DEB72A970FB6F8946C
:1003E000DEBF0FBECDBF6B017C01C114D104E1049F
:1003F000F1040CF445C009F44FC04E018FEF881A88
:10040000980A540100E010E038018AE0482E512C8F
:10041000B601C7019201A3010E94F105605DF501DB
:1004200061935F0169017A01C8010F5F1F4FC11419
:10043000D104E104F10461F784010F5F1F4F080F3D
:10044000191FF80182918F010E94240108151905D6
:10045000C1F72A960FB6F894DEBF0FBECDBFDF916D
:10046000CF911F910F91FF90EF90DF90CF90BF90B1
:10047000AF909F908F907F906F905F904F90089576
:100480008DE20E942401F094E094D094C094C11CA9
:10049000D11CE11CF11CB1CF80E32A960FB6F89471
:1004A000DEBF0FBECDBFDF91CF911F910F91FF90A7
:1004B000EF90DF90CF90BF90AF909F908F907F9004
:1004C0006F905F904F900C94240191E0611101C0F6
:1004D00090E09295990F990F907C890F80680C9409
:1004E0004D0181E00C944D0182E00C944D010F937D
:1004F0001F93CF93DF9300D000D00F92CDB7DEB71C
:1005000089836C837D834A832B83672B11F088302A
:1005100050F00F900F900F900F900F90DF91CF91B0
:100520001F910F910895880F880F880F80640E9493
:100530004D010C811D81085F1F4FEC81FD81819170
:10054000EC83FD830E9424018C819D81801791079B
:10055000A1F781E09B819115A9F08295880F880F02
:10056000807CEA818E0F80680E944D0189810F9006
:100570000F900F900F900F90DF91CF911F910F91DF
:100580000C94240180E0E9CF60EA80E00E94E80357
:1005900081E58DB908958FB9779BFECF089580913D
:1005A0007A0091E0980F90937A0080FF05C041E0B7
:1005B00060E081E00C94310340E060E081E00C9465
:1005C00031033E9A3F983D98359886B1887F86B929
:1005D00086B1866086B9379A0895379A0895379814
:1005E0000895813220F56115710521F197B1907E52
:1005F00097B997B1982B97B9369A349BFECF349A16
:100600003D9B0FC084B195B10024880F991F001C39
:10061000880F991F001C892F902DFB0180839183E7
:10062000089584B195B1FB0180839183089580E0A2
:1006300090E0089585E090E0089508950895BC0144
:1006400080E090E00E94320620E030E040EA50E492
:100650000E946F0620E030E040E85AE30E946F06F7
:1006600008956830F0F4823049F170F48115D1F0CA
:1006700081E001C0880F6A95EAF798B34130A1F193
:100680008095892388BB0895833021F581E001C0DE
:10069000880F6A95EAF792B34130E9F08095892393
:1006A00082BB089581E001C0880F6A95EAF79BB389
:1006B0004130B9F0809589238BBB089581E001C05A
:1006C000880F6A95EAF795B3413041F08095892308
:1006D00085BB08950895892B82BB0895892B85BB1E
:1006E0000895892B8BBB0895892B88BB08956830AA
:1006F000F0F4823049F170F48115D1F081E001C04D
:10070000880F6A95EAF797B34130A1F18095892364
:1007100087BB0895833021F581E001C0880F6A9579
:10072000EAF791B34130E9F08095892381BB0895C0
:1007300081E001C0880F6A95EAF79AB34130B9F0B9
:10074000809589238ABB089581E001C0880F6A954E
:10075000EAF794B3413041F08095892384BB089532
:100760000895892B81BB0895892B84BB0895892B1B
:100770008ABB0895892B87BB0895683098F482302E
:10078000A1F020F4811579F086B303C0833079F4A9
:1007900080B390E002C0959587956A95E2F78170E5
:1007A000FA018083089589B3F4CF83B3F2CF08951B
:1007B000823049F020F4811541F068BB0895833000
:1007C00031F462BB089565BB08956BBB089508952D
:1007D000823049F020F4811541F067BB08958330E1
:1007E00031F461BB089564BB08956ABB0895089510
:1007F000823069F030F4811571F086B3FB0180839B
:100800000895833061F480B3FB018083089583B33E
:10081000FB018083089589B3FB01808308950895C7
:10082000CF93C62F6430B8F482309105B1F00197B0
:1008300020F189F440E063E083E00E94770385B70C
:10084000CC0FCC0F837FC82BC5BF0FB607FC03C0EE
:100850008FB780688FBFCF9108956230E0F740E096
:1008600062E081E00E94770384B7C295CC0FCC0F81
:10087000C07C8F7BC82BC4BFE8CF40E062E083E040
:100880000E94770385B78C7F8C2B85BFDECF8130AC
:10089000910569F08230910531F0892B39F48BB7DD
:1008A00080648BBF08958BB780628BBF08958BB730
:1008B00080688BBF08958130910569F08230910581
:1008C00031F0892B39F48BB78F7B8BBF08958BB7B1
:1008D0008F7D8BBF08958BB78F778BBF0895813045
:1008E000910579F08230910539F0892B49F46093B4
:1008F0007F0070938000089560937B0070937C006C
:10090000089560937D0070937E0008951F920F926A
:100910000FB60F9211242F933F934F935F936F93D2
:100920007F938F939F93AF93BF93EF93FF93E09148
:100930007F00F0918000309709F00995FF91EF91C9
:10094000BF91AF919F918F917F916F915F914F91E7
:100950003F912F910F900FBE0F901F9018951F92EF
:100960000F920FB60F9211242F933F934F935F93E3
:100970006F937F938F939F93AF93BF93EF93FF9367
:10098000E0917D00F0917E00309709F00995FF918C
:10099000EF91BF91AF919F918F917F916F915F91F7
:1009A0004F913F912F910F900FBE0F901F90189570
:1009B0001F920F920FB60F9211242F933F934F93D4
:1009C0005F936F937F938F939F93AF93BF93EF93B7
:1009D000FF93E0917B00F0917C00309709F009953E
:1009E000FF91EF91BF91AF919F918F917F916F9107
:1009F0005F914F913F912F910F900FBE0F901F90DD
:100A0000189583B7877899B7916099BF816083BF44
:100A10008FB780688FBF81E00895909382008093A4
:100A200081008091810090918200892BD1F781E033
:100A300008958CBF81E0089508958F938FB78F93A9
:100A40009F938091810090918200009749F080915E
:100A500081009091820001979093820080938100A1
:100A60009F918F918FBF8F9118959EB56770987FDA
:100A7000692B6EBD8C3059F1A8F4811571F18A3063
:100A800021F58FB58E7F8FBD8FB582608FBD8EB5FE
:100A9000877F8EBD8EB580618EBD89B7846089BF2A
:100AA00081E008958E3089F48FB58E7F8FBD8FB52C
:100AB00082608FBD8EB588608EBD8EB580618EBD23
:100AC00089B7846089BF81E0089580E008958FB57B
:100AD0008E7F8FBD8FB58D7FECCF8FB58E7F8FBD15
:100AE0008FB58D7F8FBD8EB5877F8EBD8EB58F7E86
:100AF0008EBD87E19CEF9DBD8CBD89B7846089BFA9
:100B000081E0089581E00895613039F010F080E0CF
:100B1000089599BD88BD81E008959BBD8ABD81E09F
:100B20000895809383009093840008951F920F92FC
:100B30000FB60F9211242F933F934F935F936F93B0
:100B40007F938F939F93AF93BF93EF93FF9387E12F
:100B50009CEF9DBD8CBD8091850090918600019693
:100B60009093860080938500809185009091860007
:100B7000883E934089F0FF91EF91BF91AF919F9193
:100B80008F917F916F915F914F913F912F910F9036
:100B90000FBE0F901F90189510928600109285003E
:100BA000E0918300F0918400309729F30995E3CF19
:100BB0008EB58F7E8EBD8EB580618EBD81E008952D
:100BC00097BD86BD81E0089560EA80E00E94E80359
:100BD00081E58DB90E94760185E38FB9779BFECFC1
:100BE000FCCF052E97FB1EF400940E94080657FDCB
:100BF00007D00E94100607FC03D04EF40C940806A0
:100C000050954095309521953F4F4F4F5F4F089538
:100C100090958095709561957F4F8F4F9F4F089568
:100C2000A1E21A2EAA1BBB1BFD010DC0AA1FBB1FF0
:100C3000EE1FFF1FA217B307E407F50720F0A21B62
:100C4000B30BE40BF50B661F771F881F991F1A94CF
:100C500069F760957095809590959B01AC01BD01F9
:100C6000CF010895E89409C097FB3EF490958095D4
:100C7000709561957F4F8F4F9F4F9923A9F0F92F62
:100C800096E9BB279395F695879577956795B795E0
:100C9000F111F8CFFAF4BB0F11F460FF1BC06F5FC6
:100CA0007F4F8F4F9F4F16C0882311F096E911C0D8
:100CB000772321F09EE8872F762F05C0662371F0F9
:100CC00096E8862F70E060E02AF09A95660F771F0D
:100CD000881FDAF7880F9695879597F908950E94EF
:100CE00082060C94F3060E94E50638F00E94EC069A
:100CF00020F0952311F00C94DC060C94E2061124EC
:100D00000C9427070E94040770F3959FC1F3950F79
:100D100050E0551F629FF001729FBB27F00DB11D7F
:100D2000639FAA27F00DB11DAA1F649F6627B00D0F
:100D3000A11D661F829F2227B00DA11D621F739FF8
:100D4000B00DA11D621F839FA00D611D221F749F06
:100D50003327A00D611D231F849F600D211D822F4D
:100D6000762F6A2F11249F5750409AF0F1F0882374
:100D70004AF0EE0FFF1FBB1F661F771F881F9150A1
:100D80005040A9F79E3F510580F00C94DC060C946E
:100D900027075F3FE4F3983ED4F3869577956795F0
:100DA000B795F795E7959F5FC1F7FE2B880F911DCB
:100DB0009695879597F9089597F99F6780E870E071
:100DC00060E008959FEF80EC089500240A941616C1
:100DD000170618060906089500240A941216130629
:100DE000140605060895092E0394000C11F48823B7
:100DF00052F0BB0F40F4BF2B11F460FF04C06F5FD3
:100E00007F4F8F4F9F4F089557FD9058440F551FA8
:100E100059F05F3F71F04795880F97FB991F61F07C
:100E20009F3F79F087950895121613061406551FF3
:100E3000F2CF4695F1DF08C0161617061806991F5F
:100E4000F1CF86957105610508940895E894BB2754
:0E0E500066277727CB0197F90895F894FFCF16
:100E5E00000102040506C0F9A4B0999282F88090B0
:0A0E6E00313233343536373839009D
:00000001FF
