:100000000C942A000C94FA100C9423110C944C11AB
:100010000C9447000C9447000C9447000C94710416
:100020000C9447000C9411130C9430120C946C1225
:100030000C9447000C9447000C9447000C94470024
:100040000C9447000C9447000C9447000C94470014
:100050000C94470011241FBECFE5D8E0DEBFCDBF12
:1000600010E0A0E6B0E0ECECFBE202C005900D92DF
:10007000A23AB107D9F725E0A2EAB0E001C01D928B
:10008000AF33B207E1F70E945D140C94E4150C94B1
:100090000000EF92FF921F93CF93DF9300D000D028
:1000A000CDB7DEB789839A83162FF42E8AE190E0CC
:1000B0000E946A028B839C83892B09F44DC0809136
:1000C000A2009091A300892B09F448C0111142C0ED
:1000D000EB81FC81108E118E168BF78A89819A81B3
:1000E000819391937F01CF010E94B6028B819C8105
:1000F0000C960E94B6028B819C81FC0180879187BF
:10010000828B938B85E090E0811B91098487958792
:1001100026898091AA008217D0F030E0C901880FAB
:10012000991F880F991F880F991F820F931FB7017E
:1001300086539F4F0E94BA0281E00F900F900F905C
:100140000F90DF91CF911F91FF90EF900895209332
:10015000AA00E3CF11E0BCCF8FEFEFCF8B819C8162
:100160008093A2009093A3008AEC90E00E94A802E2
:1001700083ED90E00E94A80281EC90E00E94A8022A
:1001800088EB90E00E94A8028BEA90E00E94A8020F
:1001900081EC90E08093B6009093B70088EB90E0FC
:1001A0008093B4009093B50091CF0F931F93CF939A
:1001B000DF938B01C091A800D091A900C80FD91F6F
:1001C0008091A2009091A30002960E941303E091F7
:1001D000A200F091A300C283D3838091A8009091E4
:1001E000A900BF016E5F7F4FC817D907B0F4809197
:1001F000B4009091B5000E94DB0201151105B1F029
:100200006091A2007091A300645F7F4FC801DF91ED
:10021000CF911F910F910C94DB028091B6009091C9
:10022000B7000E94DB020115110551F7DF91CF9154
:100230001F910F9108950F931F93CF93DF93809198
:10024000AB00811561F1F894E091B000F091B1003C
:10025000C681D781CE010C960E94130378948E013B
:100260000E5F1F4FC8010E9413032E898091AA00C0
:10027000821710F42093AA0030E0C901880F991F5B
:10028000880F991F880F991F820F931FB8018653FB
:100290009F4F0E94BA028091AB008111D4CF0E947F
:1002A000A2092091A6003091A700821B930B809396
:1002B000A4009093A5002091A8003091A900009778
:1002C00009F47AC02F5F3F4F2093A8003093A90014
:1002D00001978093A4009093A5005091B60040919F
:1002E000B7002115310509F0A2C0E091B400F091EA
:1002F000B500E093B600F093B7005093B40040937C
:10030000B5004081411133C054C0F8948E010E5F96
:100310001F4FC8010E9413038C899D89892B21F0EE
:10032000CE010C960E94130378942E898091AA0026
:10033000821710F42093AA0030E0C901880F991F9A
:10034000880F991F880F991F820F931FB80186533A
:100350009F4F0E94BA02E091B600F091B7008081F1
:100360002091A8003091A900811509F458C005809A
:10037000F681E02DC681D7818A819B8128173907B4
:1003800020F68091A4009091A5000097A9F02F5F1E
:100390003F4F2093A8003093A90001978093A400B9
:1003A0009093A500E091B600F091B7004081411113
:1003B000DECF009709F086CF2093A6003093A700E8
:1003C0008091AA00282F30E0A901440F551F440F47
:1003D000551F440F551FFA01E20FF31FE653FF4F5D
:1003E0009081911599F028C08150282F30E0A90103
:1003F000440F551F440F551F440F551FFA01E20FBC
:10040000F31FE653FF4F9081911114C08111ECCF7F
:100410001092AA00DF91CF911F910F9108958091C2
:10042000A4009091A500009709F04CCFC5CFE52F0F
:10043000F42F67CF8093AA00420F531FDA01A6530F
:10044000BF4F1196ED91FD910280F381E02DFE9357
:10045000EE93119743535F4FE417F50781F08681C0
:1004600097818093A2009093A300DC01ED91FD9110
:1004700055966C91DF91CF911F910F910994028055
:10048000F381E02D1196ED93FD93E9CF0F931F9328
:10049000CF93DF93FC010580F681E02DC681D781E3
:1004A0008E01045F1F4FC8010E941303B8018BEA3D
:1004B00090E00E94BA02E091A200F091A30081E0D6
:1004C0002E899689291708F480E0DF91CF911F913A
:1004D0000F910895CF93DF9300D0CDB7DEB7898316
:1004E0009A830E949C092091DC003091DD00898173
:1004F0009A81820F931F883E43E09407A8F428173F
:10050000390790F4A90142525F4F49835A8380937F
:10051000DC009093DD000E94700A89819A810F901F
:100520000F90DF91CF91089519821A82F4CF089528
:100530001092DC001092DD0008958091DC00909113
:10054000DD0028EE33E0A901481B590BCA010895CC
:10055000FC010396818392832FEF3FEF3483238343
:10056000968385839087878310820895FC01108687
:1005700011860895CF93DF93DC01FB0111968D91D5
:100580009D91EC012A813B8122833383848395836F
:100590002A813B81E9017D836C83EC017B836A8343
:1005A000FE936E931197A087B1878C918F5F8C9388
:1005B000DF91CF910895CF93DF93AC01EB012881B8
:1005C00039812F3F320751F1FA013396DA0115963E
:1005D0008D919D91DC018D919D912817390750F0E7
:1005E0000280F381E02DA281B3818D919D91281726
:1005F0003907B0F7A281B381AA83BB831696DE9335
:10060000CE93EC83FD83D383C28348875987FA0155
:1006100080818F5F8083DF91CF910895DA011796F3
:10062000ED91FD91E7CFCF93DF93FC01A281B381E0
:100630008481958116969E938E93149784819581DB
:10064000EC01BB83AA83A085B18511962D913D91C4
:1006500013972E173F0741F0108611868C91815019
:100660008C93DF91CF91089511968D939D9313975D
:10067000108611868C9181508C93DF91CF910895D3
:1006800031E1FC01308322E22293A3E3A29362933F
:100690007293129260E86293129262E0629363E056
:1006A000629364E0629365E0629366E0629367E060
:1006B000629368E0629369E0629360E162933293CF
:1006C00032E1329333E1329334E1329335E13293C4
:1006D00036E1329337E1329338E1329339E13293A4
:1006E00030E2329331E23293229323E22293429317
:1006F000529326E2229327E2229328E2229329E2D0
:10070000229320E3229321E32293869708951BBC32
:100710008CE78ABD8BE08EBD89B7806189BFA091CF
:10072000C604B091C704CD91CDBFDD91DEBFFF916E
:10073000EF91DF91CF91BF91AF919F918F917F9179
:100740006F915F914F913F912F911F910F91FF906A
:10075000EF90DF90CF90BF90AF909F908F907F9061
:100760006F905F904F903F902F901F900F900FBE13
:100770000F90089581E0089508950F920FB6F894B0
:100780000F921F9211242F923F924F925F926F927D
:100790007F928F929F92AF92BF92CF92DF92EF9211
:1007A000FF920F931F932F933F934F935F936F93FA
:1007B0007F938F939F93AF93BF93CF93DF93EF93E9
:1007C000FF93A091C604B091C7040DB60D920EB66A
:1007D0000D920E94890BA091C604B091C704CD91DF
:1007E000CDBFDD91DEBFFF91EF91DF91CF91BF9142
:1007F000AF919F918F917F916F915F914F913F91B9
:100800002F911F910F91FF90EF90DF90CF90BF90AD
:10081000AF909F908F907F906F905F904F903F90A0
:100820002F901F900F900FBE0F9008950F920FB64C
:10083000F8940F921F9211242F923F924F925F9241
:100840006F927F928F929F92AF92BF92CF92DF92E0
:10085000EF92FF920F931F932F933F934F935F93CA
:100860006F937F938F939F93AF93BF93CF93DF93B8
:10087000EF93FF93A091C604B091C7040DB60D92FB
:100880000EB60D920E94B4090E94890BA091C60475
:10089000B091C704CD91CDBFDD91DEBFFF91EF9147
:1008A000DF91CF91BF91AF919F918F917F916F9188
:1008B0005F914F913F912F911F910F91FF90EF907A
:1008C000DF90CF90BF90AF909F908F907F906F9070
:1008D0005F904F903F902F901F900F900FBE0F9002
:1008E00008950E94160418950F931F93CF93DF93DA
:1008F000EC010FB6F8940F928E8D1816C4F48E0189
:100900000F5E1F4F05C08E8D81508E8F18167CF4A0
:100910008989811561F0C8010E94FC0B811599F34A
:100920000E94860C8E8D81508E8F18168CF38FEF5F
:100930008E8F0F900FBE0FB6F8940F928D8D1816F4
:10094000C4F48E01085F1F4F05C08D8D81508D8FBF
:1009500018167CF48885811561F0C8010E94FC0B93
:10096000811599F30E94860C8D8D81508D8F1816FC
:100970008CF38FEF8D8F0F900FBEDF91CF911F9172
:100980000F9108951F93CF93DF9300D000D00F9263
:10099000CDB7DEB7182F6983811509F442C08FE106
:1009A00090E00E946A028C839D838C819D81892BBB
:1009B000C1F1F981F19FF0011124EA83FB83CF019A
:1009C00001960E946A02EC81FD81808391830097E9
:1009D00021F12A813B81280F391F22833383128E14
:1009E000848395832A813B81F9812F1B3109820FF2
:1009F000931FEC81FD8186839783138F4981448FF8
:100A00008FEF858F868FCF0108960E94A8028C8178
:100A10009D8141960E94A80206C08C819D810E9402
:100A200097021C821D828C819D810F900F900F90E8
:100A30000F900F90DF91CF911F9108950F931F9307
:100A4000CF93DF93CDB7DEB728970FB6F894DEBF0C
:100A50000FBECDBF8C016E837F834C835D8328875F
:100A60000FB6F8940F92FC01928D838D981708F4BD
:100A700053C08C819D81892B09F467C0CE010196FA
:100A80000E94410C13C0C8010E9474040E94700AA5
:100A90000FB6F8940F92F801928D838D981708F491
:100AA0003BC08C819D81892B09F44FC00F900FBEF4
:100AB0000E949C090FB6F8940F92F801858D8F3F24
:100AC00009F4158EF801868D8F3F09F4168E0F906C
:100AD0000FBEBE016C5F7F4FCE0101960E944C0C91
:100AE000811137C00FB6F8940F92F801928D0F90D4
:100AF0000FBE838D9813C7CF6C817D81C801089686
:100B00000E94D80BC8010E9474040E94700A8111CF
:100B1000BFCF0E94BD03BCCFF801448D411120C05E
:100B2000F801828D8F5F828F8189811136C00F908D
:100B30000FBE81E028960FB6F894DEBF0FBECDBF82
:100B4000DF91CF911F910F9108950F900FBE80E01C
:100B5000F1CFC8010E9474040E94700A80E0EACFBD
:100B600050E0F8856E817F81F11121C0F801848108
:100B700095810E94C515F801248D84819581820F8D
:100B8000911D84839583228133818217930740F2DC
:100B90008081918184839583C3CFC80141960E944F
:100BA000FC0B813009F0C3CF0E94BD03C0CFF80118
:100BB000868197810E94C515F801248D30E08681D9
:100BC0009781821B930B8683978340815181841781
:100BD000950708F0A5CF82819381821B930B8683B2
:100BE00097839ECFCF93DF9300D000D0CDB7DEB7F1
:100BF0008B839C8349835A83EB81FC81928D838D07
:100C0000981740F080E00F900F900F900F90DF91B9
:100C1000CF910895448D411114C0EB81FC81828DE8
:100C20008F5F828F868D8F3F31F18F5FEB81FC81EB
:100C3000868F81E00F900F900F900F90DF91CF91F2
:100C4000089550E0211126C0848195810E94C51528
:100C5000EB81FC81248D84819581820F911D848399
:100C600095832281338182179307B8F28081918125
:100C700084839583D2CF81898115D9F2CF014196A2
:100C80000E94FC0B8115A9F281E0E981FA81808341
:100C900081E0D0CFEB81FC81868197810E94C515D0
:100CA000EB81FC81248D30E086819781821B930B40
:100CB00086839783408151818417950708F0ADCFD3
:100CC00082819381821B930B86839783A6CFEF92B9
:100CD000FF920F931F93CF93DF93CDB7DEB7289783
:100CE0000FB6F894DEBF0FBECDBF8C016F8378873F
:100CF0004C835D832E830FB6F8940F92FC01828D96
:100D0000811156C08C819D81892B09F47CC0CE0154
:100D100001960E94410C7801F1E1EF0EF11C19C01F
:100D20006C817D81C7010E94D80BC8010E947404A8
:100D30000E94700A811509F438C00FB6F8940F921A
:100D4000F801828D811134C08C819D81892B09F439
:100D50005AC00F900FBE0E949C090FB6F8940F92D4
:100D6000F801858D8F3F09F4158EF801868D8F3F30
:100D700009F4168E0F900FBEBE016C5F7F4FCE013F
:100D800001960E944C0C81114EC00FB6F8940F9240
:100D9000F801828D0F900FBE811509F4C1CFC801F3
:100DA0000E9474040E94700AC8CF0E94BD03C5CF80
:100DB000F801E680F78080819181009789F0248D89
:100DC000422F50E0B701620F711D66837783228145
:100DD000338162177307B8F58F8198850E94C51516
:100DE000FE81F11126C0F801828D8150828F8085AD
:100DF000811529F1C80108960E94FC0B8130F9F495
:100E00000E94BD031CC00F900FBE80E028960FB655
:100E1000F894DEBF0FBECDBFDF91CF911F910F9130
:100E2000FF90EF900895C8010E9474040E94700A18
:100E3000ECCFF801E682F7828189811108C00F901A
:100E40000FBE81E0E3CF86839783BC01C5CFC80185
:100E500041960E94FC0B811591F3D2CFCF93DF9383
:100E600000D000D0CDB7DEB78B839C839B01498334
:100E70005A83AB81BC815A969C915A9780E091111C
:100E800007C00F900F900F900F90DF91CF910895B2
:100E90008D919D9112970097B1F05C965C91E52F32
:100EA000F0E056976D917D91650F711D7E936E9365
:100EB00014974D915D91149764177507C0F4AF01B5
:100EC000C9010E94C515EB81FC81828D8150828F02
:100ED000858D8F3F89F08F5FEB81FC81858F81E06D
:100EE0000F900F900F900F90DF91CF91089516966D
:100EF0008D939D93BC01E3CF8085811581F3CF0154
:100F000008960E94FC0B811551F381E0A981BA81FA
:100F10008C9381E0E5CFFC010FB6F8940F92828D9F
:100F20000F900FBE0895FC01828D0895CF93DF933B
:100F3000EC01888199810E949702CE01DF91CF91C7
:100F40000C949702FC01928D81E0911180E008954C
:100F5000FC01928D81E0238D291380E00895CF93C9
:100F6000DF93EC01E091C604F091C7048283D38340
:100F70008091D0049091D1046091C6047091C7040F
:100F8000C817D90750F48091E6049091E7046E5F8A
:100F90007F4FDF91CF910C94DB028091E804909118
:100FA000E9046E5F7F4F0E94DB02809160009091A8
:100FB0006100C817D90720F4C0936000D093610086
:100FC000DF91CF910895CF92DF92EF92FF920F932E
:100FD0001F93CF93DF93CDB7DEB72C970FB6F8945E
:100FE000DEBF0FBECDBF8D839E836F83788749831D
:100FF0005A8329873A87EB82FC82760181E290E06E
:101000000E946A028B879C878B859C85009709F4D8
:1010100002C1C114D10409F4EFC0FC01C78AF08EEB
:1010200049815A8165EA70E0C7010E94CE15898125
:101030009A810197EB85FC85E788F08CE80EF91E14
:1010400047E050E06F817885CF0149960E94D51521
:10105000EB85FC8510A2102F053008F07BC0EB85D6
:10106000FC85168B32966F01CF010E94B6028B85EC
:101070009C850C960E94B6028B859C85FC0180871E
:10108000918785E090E0811B910984879587F38B98
:10109000E28B49855A856D817E81C7010E9440039C
:1010A000EB85FC85808391838B819C81892B29F042
:1010B000CF01EB81FC81808391830FB6F8940F926E
:1010C0008091D2048F5F8093D2048091C604909166
:1010D000C704892B09F459C08091CD04811509F406
:1010E00045C0EB85FC8526898091CF04821710F4DA
:1010F0002093CF048091C8048F5F8093C8048091AF
:10110000CE04821710F42093CE0430E0C901880F7A
:10111000991F880F991F880F991F820F931FB6017F
:1011200084509B4F0E94BA020F900FBE8091CD0455
:10113000811112C081E02C960FB6F894DEBF0FBE6D
:10114000CDBFDF91CF911F910F91FF90EF90DF9076
:10115000CF90089514E083CFE091C604F091C704C6
:101160008689801738F70E94BD03E4CFE091C6045A
:10117000F091C7048689081708F4B3CFEB85FC8586
:10118000F093C704E093C604ACCFEB85FC85F093E5
:10119000C704E093C6048091D204813009F0A1CF46
:1011A0005CEFE52E54E0F52EC7010E94A802F9E09D
:1011B000EF0EF11C89E295E08E159F05A9F783EFEC
:1011C00094E00E94A8028AEE94E00E94A8028DEDAD
:1011D00094E00E94A80284ED94E00E94A80283EFAC
:1011E00094E09093E9048093E8048AEE94E090936D
:1011F000E7048093E60475CF89819A810E946A0290
:101200007C01EB85FC85878BF08E892B09F008CF5C
:10121000CF010E9497028FEF8ECF0F931F93CF9332
:10122000DF9300D000D0CDB7DEB78B839C830FB6A1
:10123000F8940F928091C6049091C7042B813C8151
:101240008217930739F0232B29F0EB81FC81E98386
:10125000FA8308C08091C6049091C7048B839C8355
:1012600019821A820B811C810E5F1F4FC8010E94D8
:101270001303EB81FC8184899589892B21F0CF01AF
:101280000C960E941303B80184ED94E00E94BA0208
:101290008091D3048F5F8093D3048091C8048F5FC3
:1012A0008093C8040F900FBE8091CD04811521F06A
:1012B00029813A81232B49F00F900F900F900F90C6
:1012C000DF91CF911F910F9108950E94BD03F4CF3C
:1012D000AF92BF92CF92DF92EF92FF920F93A12C29
:1012E000B12C6501750100E0950145E550E06BE723
:1012F00070E085E59BE00E94E307813041F00F91AB
:10130000FF90EF90DF90CF90BF90AF900895F8944A
:101310008093CD041092D1041092D0040F91FF90CD
:10132000EF90DF90CF90BF90AF900C948703F8942C
:101330001092CD040C94BC038091CC048F5F8093F9
:10134000CC0408950FB6F8940F928091D004909138
:10135000D1040F900FBE08958091D0049091D104D4
:1013600008958091D20408950F931F93CF93DF9334
:101370008091CC0481116BC08091D0049091D104F4
:1013800001969093D1048093D0048091D0049091E1
:10139000D104892B09F465C08091600090916100AF
:1013A0002091D0043091D1042817390708F454C093
:1013B000E091E804F091E904808181112DC085C09D
:1013C0008E010E5F1F4FC8010E9413038C899D89F7
:1013D000892B21F0CE010C960E9413032E89809157
:1013E000CE04821710F42093CE0430E0C901880F98
:1013F000991F880F991F880F991F820F931FB8019B
:1014000084509B4F0E94BA02E091E804F091E904F5
:101410008081811509F459C0E091E804F091E90454
:101420000580F681E02DC681D7818A819B8120913C
:10143000D0043091D1042817390710F6809360004A
:1014400090936100DF91CF911F910F91089580914A
:10145000CB048F5F8093CB04DF91CF911F910F91CD
:1014600008958091E8049091E9042091E604309178
:10147000E7043093E9042093E8049093E704809311
:10148000E6048091C9048F5F8093C904E091E80469
:10149000F091E9048081811107C08FEF9FEF809365
:1014A0006000909361007CCFE091E804F091E90442
:1014B0000580F681E02D0680F781E02D8281938101
:1014C00080936000909361006BCF8FEF9FEF8093CC
:1014D000600090936100DF91CF911F910F9108956B
:1014E000FF920F931F93CF93DF930FB6F8940F9251
:1014F0008091CC0481508093CC048091CC048111E4
:101500004BC08091D204811509F446C08091DD045E
:10151000811509F45BC0F12CE091E204F091E30441
:10152000C681D781CE010C960E9413038E010E5FF7
:101530001F4FC8010E9413032E898091CE04821789
:1015400010F42093CE0430E0C901880F991F880F52
:10155000991F880F991F820F931FB80184509B4FCA
:101560000E94BA02E091C604F091C70481E02E897E
:101570009689291708F480E0F82A8091DD0481110A
:10158000CBCF8091CB04811117C081E0F816C1F058
:101590008091CA048130A1F080E00F900FBEDF91EE
:1015A000CF911F910F91FF9008950E94B4098091EF
:1015B000CB0481508093CB048091CB048111F5CF73
:1015C0001092CA040E94BD0381E0E7CF8091CB0452
:1015D0008115F1F2F1CFCF93DF93FC019091CC0410
:1015E0009F5F9093CC0420813181E901C60FD71F02
:1015F0008091D0049091D1048217930760F4C217B0
:10160000D30760F0C083D1830E94700A8115E9F08E
:10161000DF91CF910895C217D30738F08091D0049D
:101620009091D1048C179D0768F7C083D183809176
:10163000C6049091C70402960E941303CE010E9433
:10164000AF070E94700A8111E3CF0E94BD03DF91B2
:10165000CF910895CF93DF9300D0CDB7DEB7009739
:10166000E9F02091CC042F5F2093CC042091D0048A
:101670003091D104A901480F591F49835A838091A1
:10168000C6049091C70402960E94130389819A812F
:101690000E94AF070E94700A811102C00E94BD0320
:1016A0000F900F90DF91CF9108958091D304811511
:1016B000E1F38091CC048F5F8093CC04C091D4047B
:1016C0000E94700AC11589F30FB6F8940F92E09149
:1016D000D904F091DA04C681D781CE0102960E9426
:1016E00013038091D20481508093D2048091D3045B
:1016F00081508093D3040F900FBE8F89988D0E94E4
:101700009702CE010E9497028091D304811569F25D
:10171000D0CF8091CC04811549F081E08093CA0438
:1017200008958091CE0481508093CE048091CE04A0
:1017300090E0FC01EE0FFF1FEE0FFF1FEE0FFF1FEB
:10174000E80FF91FE450FB4F8081811551F3209180
:10175000CE0430E0C901880F991F880F991F880FA8
:10176000991F820F931FDC01A450BB4F1196ED917E
:10177000FD910280F381E02DFE93EE93119781504D
:101780009B4FE817F90739F0868197819093C7043A
:101790008093C60408950280F381E02D1196ED93A5
:1017A000FD93868197819093C7048093C604089522
:1017B000CF93DF9300D0CDB7DEB769837A83609192
:1017C000C6047091C704645F7F4F0E94DB02809162
:1017D000C6049091C70402960E9413038091D0041E
:1017E0009091D10429813A81820F931F0F900F901D
:1017F000DF91CF910C94AF070F931F93CF93DF939B
:10180000FC010580F681E02DC681D7818E01045F41
:101810001F4FC8010E9413038091CC04811128C07E
:101820000A501109C8010E9413032E898091CE0429
:10183000821720F130E0C901880F991F880F991F86
:10184000880F991F820F931FB80184509B4F0E94ED
:10185000BA02E091C604F091C70481E02E8996890E
:10186000291708F480E0DF91CF911F910F9108951F
:10187000B8018DED94E00E94BA02EBCF2093CE0424
:10188000D9CF2091C904FC0120832091D00430914C
:10189000D104218332830895FC010FB6F8940F928E
:1018A0008091C904418152819081981759F08091AB
:1018B000D0049091D1048417950720F081E00F9017
:1018C0000FBE08952091D0043091D104DB018D9199
:1018D0009D911297241B350B2817390778F7209113
:1018E000D0043091D104821B930B840F951F8D93EC
:1018F0009D938091C90480838091D0049091D104FC
:101900008183928380E00F900FBE089581E08093E1
:10191000CA0408956FEF80E00E94451041E067E03F
:1019200080E00C94D40F8A3008F00895E82FF0E09E
:10193000E859FF4F608180E00C94351041E067E08A
:1019400080E00C948E0F40E067E080E00C948E0FF6
:10195000CF93DF93C5E6D0E0699141E083E00E9438
:10196000D40FFE0141E0629183E00E948E0F80E07F
:10197000C836D80789F7C2E6D0E0699140E083E035
:101980000E94D40FFE0141E0629183E00E948E0F1D
:1019900080E0C536D80789F7DF91CF910895AF92DF
:1019A000BF92CF92DF92EF92FF920F931F93CF934C
:1019B000DF93CDB7DEB72A970FB6F894DEBF0FBE20
:1019C000CDBF89E0E2E7F0E0DE01119601900D92D3
:1019D0008A95E1F781E08A8745E6A42E40E0B42E9F
:1019E000C12CD12C40E0F501608183E00E948E0F74
:1019F00032E6E32E30E0F32E00E010E0F7016191D3
:101A00007F01AE01465F5F4F83E00E941A108A8516
:101A1000811541F10F5F1F4F0330110579F7FFEF7B
:101A2000AF1ABF0AF50141E0629183E00E948E0F78
:101A30008FEFC81AD80A93E0C916D10499F6F12C91
:101A40008F2D2A960FB6F894DEBF0FBECDBFDF9163
:101A5000CF911F910F91FF90EF90DF90CF90BF90AB
:101A6000AF9008958FE59AEE0197F1F700C000005E
:101A7000AE01465F5F4FF701629183E00E941A104A
:101A80008A858111C7CFC801880F991F800F911FC8
:101A9000FE013196E80FF91FEC0DFD1DF0800E5987
:101AA0001F4FAE01465F5F4FF801608183E00E94E7
:101AB0001A108A858115A9F3F601EB59FF4F41E011
:101AC000608183E00E948E0FBBCFCF93DF930F9294
:101AD000CDB7DEB7898341E061E082E00E948E0FDE
:101AE000698181E00E94351041E060E082E00E945F
:101AF0008E0F8FE99FE00197F1F700C0000040E0F2
:101B000060E082E00E948E0F8FE99FE00197F1F77D
:101B100000C000000F90DF91CF910895CF93DF9325
:101B20000F92CDB7DEB7898340E061E082E00E948A
:101B30008E0F698181E00E94351041E060E082E013
:101B40000E948E0F8FE99FE00197F1F700C000001F
:101B500040E060E082E00E948E0F8FE99FE00197F5
:101B6000F1F700C000000F90DF91CF91089561E080
:101B700081E00E94451041E060E082E00E94D40FC5
:101B800041E061E082E00E94D40F8FE39CE901977D
:101B9000F1F700C0000088E30E948E0D8FE097E20D
:101BA0000197F1F700C0000088E30E948E0D8FE0DE
:101BB00097E20197F1F700C0000088E30E948E0DC4
:101BC0008FE097E20197F1F700C0000088E00E94E3
:101BD0008E0D8FE097E20197F1F700C0000081E0E1
:101BE0000E948E0D8FE097E20197F1F700C0000090
:101BF00086E00E948E0D8FE097E20197F1F700C01A
:101C000000008CE00E948E0D8FE097E20197F1F7C3
:101C100000C000000895CF93DF93EC01892B49F0B9
:101C20008881811531F021960E94650D899181117D
:101C3000FBCFDF91CF9108954F925F926F927F9289
:101C40008F929F92AF92BF92CF92DF92EF92FF92CC
:101C50000F931F93CF93DF93CDB7DEB72A970FB6BD
:101C6000F894DEBF0FBECDBF6B017C01C114D1045F
:101C7000E104F1040CF445C009F44FC04E018FEFAC
:101C8000881A980A540100E010E038018AE0482ED2
:101C9000512CB601C7019201A3010E948914605D15
:101CA000F50161935F0169017A01C8010F5F1F4F60
:101CB000C114D104E104F10461F784010F5F1F4FE7
:101CC000080F191FF80182918F010E94650D0815F8
:101CD0001905C1F72A960FB6F894DEBF0FBECDBF27
:101CE000DF91CF911F910F91FF90EF90DF90CF90F8
:101CF000BF90AF909F908F907F906F905F904F902C
:101D000008958DE20E94650DF094E094D094C09403
:101D1000C11CD11CE11CF11CB1CF80E32A960FB687
:101D2000F894DEBF0FBECDBFDF91CF911F910F9111
:101D3000FF90EF90DF90CF90BF90AF909F908F90EB
:101D40007F906F905F904F900C94650D91E06111C2
:101D500001C090E09295990F990F907C890F80684F
:101D60000C948E0D81E00C948E0D82E00C948E0DFF
:101D70000F931F93CF93DF9300D000D00F92CDB776
:101D8000DEB789836C837D834A832B83672B11F0B5
:101D9000883050F00F900F900F900F900F90DF91C0
:101DA000CF911F910F910895880F880F880F80643D
:101DB0000E948E0D0C811D81085F1F4FEC81FD81FB
:101DC0008191EC83FD830E94650D8C819D8180173C
:101DD0009107A1F781E09B819115A9F08295880F69
:101DE000880F807CEA818E0F80680E948E0D898129
:101DF0000F900F900F900F900F90DF91CF911F9148
:101E00000F910C94650D80E0E9CFCF93DF93CDB7B0
:101E1000DEB761970FB6F894DEBF0FBECDBF81E18C
:101E2000E0E8F0E0DE01119601900D928A95E1F76D
:101E3000CE0101960E940B0E84E690E00E942A0BD0
:101E4000F7CFCF93DF93CDB7DEB761970FB6F89496
:101E5000DEBF0FBECDBF81E1E1E9F0E0DE0111960A
:101E600001900D928A95E1F7CE0101960E940B0E2A
:101E700084E690E00E942A0BF7CFFFCF3E9A3F986E
:101E80003D98359886B1887F86B986B1866086B9D7
:101E9000379A0895379A089537980895813220F532
:101EA0006115710521F197B1907E97B997B1982B83
:101EB00097B9369A349BFECF349A3D9B0FC084B1BC
:101EC00095B10024880F991F001C880F991F001CD2
:101ED000892F902DFB0180839183089584B195B162
:101EE000FB0180839183089580E090E0089585E070
:101EF00090E0089508950895BC0180E090E00E946C
:101F0000CA1420E030E040EA50E40E94071520E0C7
:101F100030E040E85AE30E94071508956830F0F475
:101F2000823049F170F48115D1F081E001C0880F51
:101F30006A95EAF798B34130A1F18095892388BB6F
:101F40000895833021F581E001C0880F6A95EAF792
:101F500092B34130E9F08095892382BB089581E0F6
:101F600001C0880F6A95EAF79BB34130B9F08095BC
:101F700089238BBB089581E001C0880F6A95EAF739
:101F800095B3413041F08095892385BB089508952C
:101F9000892B82BB0895892B85BB0895892B8BBB28
:101FA0000895892B88BB08956830F0F4823049F198
:101FB00070F48115D1F081E001C0880F6A95EAF7CD
:101FC00097B34130A1F18095892387BB0895833071
:101FD00021F581E001C0880F6A95EAF791B341309D
:101FE000E9F08095892381BB089581E001C0880FC5
:101FF0006A95EAF79AB34130B9F0809589238ABB94
:10200000089581E001C0880F6A95EAF794B34130E2
:1020100041F08095892384BB08950895892B81BB65
:102020000895892B84BB0895892B8ABB0895892B39
:1020300087BB0895683098F48230A1F020F48115B0
:1020400079F086B303C0833079F480B390E002C0A6
:10205000959587956A95E2F78170FA0180830895D6
:1020600089B3F4CF83B3F2CF0895823049F020F4DE
:10207000811541F068BB0895833031F462BB089547
:1020800065BB08956BBB08950895823049F020F434
:10209000811541F067BB0895833031F461BB089529
:1020A00064BB08956ABB08950895823069F030F4E6
:1020B000811571F086B3FB0180830895833061F44C
:1020C00080B3FB018083089583B3FB01808308956F
:1020D00089B3FB018083089508958130910569F0EB
:1020E0008230910531F0892B39F48BB780648BBF36
:1020F00008958BB780628BBF08958BB780688BBFC4
:1021000008950F931F93CF938C01C62F6430F8F47A
:102110008230910501F1019798F1C9F440E063E044
:1021200083E00E94D40F41E063E083E00E948E0FC1
:1021300085B7CC0FCC0F837FC82BC5BFC8010E94C9
:102140006D100FB607FC03C08FB780688FBFCF91AB
:102150001F910F9108956230D0F740E062E081E076
:102160000E94D40F41E062E081E00E948E0F84B7AC
:10217000C295CC0FCC0FC07C8F7BC82BC4BFDECFE9
:1021800040E062E083E00E94D40F41E062E083E03F
:102190000E948E0F85B78C7F8C2B85BFCFCF81306F
:1021A000910569F08230910531F0892B39F48BB7B4
:1021B0008F7B8BBF08958BB78F7D8BBF08958BB7B7
:1021C0008F778BBF08958130910579F0823091052A
:1021D00039F0892B49F460932D0570932E050895ED
:1021E0006093290570932A05089560932B057093D9
:1021F0002C0508951F920F920FB60F9211242F9362
:102200003F934F935F936F937F938F939F93AF937E
:10221000BF93EF93FF93E0912D05F0912E0530973A
:1022200009F00995FF91EF91BF91AF919F918F9127
:102230007F916F915F914F913F912F910F900FBEC2
:102240000F901F9018951F920F920FB60F921124A6
:102250002F933F934F935F936F937F938F939F93AE
:10226000AF93BF93EF93FF93E0912B05F0912C0573
:10227000309709F00995FF91EF91BF91AF919F9130
:102280008F917F916F915F914F913F912F910F901F
:102290000FBE0F901F9018951F920F920FB60F92BE
:1022A00011242F933F934F935F936F937F938F935B
:1022B0009F93AF93BF93EF93FF93E0912905F09124
:1022C0002A05309709F00995FF91EF91BF91AF91E1
:1022D0009F918F917F916F915F914F913F912F913E
:1022E0000F900FBE0F901F90189580933905909313
:1022F0003A05609337057093380513BE8230910517
:10230000E9F070F4892B61F183B7806483BF83B7F0
:10231000877F83BF83B7887F6770862B83BF0895CD
:102320000397C1F783B7806483BF83B7886083BF97
:1023300083B7887F6770862B83BF089583B78F7BB1
:1023400083BF83B7886083BF8CE78CBF12BE89B719
:10235000826089BF83B7887F6770862B83BF0895AB
:1023600083B78F7B83BF83B7877F83BF83E882BFB9
:1023700089B7816089BF83B7887F6770862B83BFE9
:1023800008950F931F93009719F12091390530910B
:102390003A05232BE9F4009133051091340520917F
:1023A00035053091360540913305509134056091E3
:1023B000350570913605401B510B620B730B4817A6
:1023C00059076105710578F381E01F910F91089518
:1023D00080E01F910F9108950F931F93009739F09C
:1023E0002091390530913A052230310521F080E005
:1023F0001F910F910895009133051091340520919C
:102400003505309136054091330550913405609182
:10241000350570913605401B510B620B730B481745
:1024200059076105710578F381E01F910F910895B7
:102430008CBF089580933105909332050895809361
:102440002F0590933005089593B7809137058770D5
:10245000987F892B83BF089583B7887F83BF0895B2
:102460001F920F920FB60F9211242F933F934F9309
:102470005F936F937F938F939F93AF93BF93EF93EC
:10248000FF938091330590913405A0913505B0916B
:1024900036050196A11DB11D809333059093340537
:1024A000A0933505B0933605E0912F05F0913005E6
:1024B000309709F00995FF91EF91BF91AF919F91EE
:1024C0008F917F916F915F914F913F912F910F90DD
:1024D0000FBE0F901F9018951F920F920FB60F927C
:1024E00011242F933F934F935F936F937F938F9319
:1024F0009F93AF93BF93EF93FF9383E882BF809145
:10250000330590913405A0913505B09136050196BB
:10251000A11DB11D8093330590933405A09335051B
:10252000B0933605E0913105F0913205309709F00E
:102530000995FF91EF91BF91AF919F918F917F91FD
:102540006F915F914F913F912F910F900FBE0F9020
:102550001F9018951FBC1EBC8E3011F080E00895AE
:102560008FB58E7F8FBD8FB582608FBD8EB5886031
:102570008EBD8EB580618EBD8FB580688FBD8FB5E5
:102580008F7B8FBD8FE19EE497BD86BD89B7846048
:1025900089BF8EB56770887F682B6EBD81E0089516
:1025A000CF92DF92EF92FF92C0903B05D0903C0516
:1025B000E0903D05F0903E058431910528F19C01A5
:1025C000ADECBCEC0E947A14929582958F708927AD
:1025D0009F708927AC0160E070E080913B0590918D
:1025E0003C05A0913D05B0913E058C199D09AE09B1
:1025F000BF0984179507A607B70778F381E0FF9016
:10260000EF90DF90CF90089541E050E060E070E0FF
:10261000E4CF613011F080E008959BBD8ABD81E078
:1026200008951F921FB61F9211248F939F93AF930B
:10263000BF9380913B0590913C05A0913D05B091E1
:102640003E050196A11DB11D80933B0590933C056D
:10265000A0933D05B0933E05BF91AF919F918F919F
:102660001F901FBE1F9018959FEF980F973760F42B
:1026700096B7946096BF91B19C7F91B991B191B991
:1026800090E290B9880F82B9089584EA86BF80EA03
:1026900096E8A1E0B0E004C00197A040B04059F036
:1026A00006B607FEF9CF91B1987F81E0983009F422
:1026B00080E090E0089584E086BF80E190E0089596
:1026C00084EA86BF80EA96E8A1E0B0E004C0019702
:1026D000A040B04069F006B607FEF9CF21B1287FCF
:1026E00081E090E0203109F480E0880F991F08957F
:1026F00084E086BF80E190E0089584E986BF089574
:102700008837F8F4880F83B984E886BF80EA96E8B2
:10271000A1E0B0E004C00197A040B040C1F006B60F
:1027200007FEF9CF81B1887F883171F081B1887F50
:10273000803291F081B1887F883389F085E090E024
:10274000089581E190E0089583E090E0089584E0A9
:1027500086BF80E190E0089584E090E008958FE0E6
:1027600090E00895883700F5880F816083B984E888
:1027700086BF80EA96E8A1E0B0E004C00197A040DF
:10278000B040C1F006B607FEF9CF81B1887F803432
:1027900071F081B1887F883491F081B1887F88336E
:1027A00089F088E090E0089581E190E0089586E066
:1027B00090E0089584E086BF80E190E0089587E08E
:1027C00090E008958FE090E0089583B984E886BF93
:1027D00080EA96E8A1E0B0E004C00197A040B040D4
:1027E000C1F006B607FEF9CF81B1887F883271F05B
:1027F00081B1887F803391F081B1887F883319F06F
:102800008BE090E008958FE090E0089589E090E0FB
:10281000089584E086BF80E190E008958AE090E02A
:102820000895FC01892BB1F084EC86BF40EA56E89C
:1028300061E070E005C0415050406040704091F050
:1028400006B607FEF8CF91B1987F903531F08EE053
:1028500090E0089582E190E0089583B180838CE058
:1028600090E0089584E086BF80E190E00895FC0147
:10287000892BB1F084E886BF40EA56E861E070E059
:1028800005C0415050406040704091F006B607FED0
:10289000F8CF91B1987F983531F08EE090E00895AF
:1028A00082E190E0089583B180838DE090E0089507
:1028B00084E086BF80E190E008958FB780688FBF85
:1028C0000E94B70DA12CB12C6501750104E09501A2
:1028D00040E951E0B50185E09FE00E94E3079501E2
:1028E00040E951E0B50181E29FE00E94E3070E94C8
:1028F0006809FFCFA29FB001B39FC001A39F700DD5
:10290000811D1124911DB29F700D811D1124911DF7
:102910000895052E97FB1EF400940E94A01457FD05
:1029200007D00E94A81407FC03D04EF40C94A01406
:1029300050954095309521953F4F4F4F5F4F0895EB
:1029400090958095709561957F4F8F4F9F4F08951B
:10295000A1E21A2EAA1BBB1BFD010DC0AA1FBB1FA3
:10296000EE1FFF1FA217B307E407F50720F0A21B15
:10297000B30BE40BF50B661F771F881F991F1A9482
:1029800069F760957095809590959B01AC01BD01AC
:10299000CF010895E89409C097FB3EF49095809587
:1029A000709561957F4F8F4F9F4F9923A9F0F92F15
:1029B00096E9BB279395F695879577956795B79593
:1029C000F111F8CFFAF4BB0F11F460FF1BC06F5F79
:1029D0007F4F8F4F9F4F16C0882311F096E911C08B
:1029E000772321F09EE8872F762F05C0662371F0AC
:1029F00096E8862F70E060E02AF09A95660F771FC0
:102A0000881FDAF7880F9695879597F908950E94A1
:102A10001A150C948B150E947D1538F00E948415B0
:102A200020F0952311F00C9474150C947A15112450
:102A30000C94BF150E949C1570F3959FC1F3950FE0
:102A400050E0551F629FF001729FBB27F00DB11D32
:102A5000639FAA27F00DB11DAA1F649F6627B00DC2
:102A6000A11D661F829F2227B00DA11D621F739FAB
:102A7000B00DA11D621F839FA00D611D221F749FB9
:102A80003327A00D611D231F849F600D211D822F00
:102A9000762F6A2F11249F5750409AF0F1F0882327
:102AA0004AF0EE0FFF1FBB1F661F771F881F915054
:102AB0005040A9F79E3F510580F00C9474150C947A
:102AC000BF155F3FE4F3983ED4F3869577956795FD
:102AD000B795F795E7959F5FC1F7FE2B880F911D7E
:102AE0009695879597F9089597F99F6780E870E024
:102AF00060E008959FEF80EC089500240A94161674
:102B0000170618060906089500240A9412161306DB
:102B1000140605060895092E0394000C11F4882369
:102B200052F0BB0F40F4BF2B11F460FF04C06F5F85
:102B30007F4F8F4F9F4F089557FD9058440F551F5B
:102B400059F05F3F71F04795880F97FB991F61F02F
:102B50009F3F79F087950895121613061406551FA6
:102B6000F2CF4695F1DF08C0161617061806991F12
:102B7000F1CF86957105610508940895E894BB2707
:102B800066277727CB0197F90895FB01DC0102C086
:102B900001900D9241505040D8F70895DC0101C0DA
:102BA0006D9341505040E0F70895FB01DC01415026
:102BB000504048F001900D920020C9F701C01D92CD
:0C2BC00041505040E0F70895F894FFCF1A
:102BCC00FFFF000102040506C0F9A4B0999282F837
:102BDC00809031323334353637383949444C4500DE
:102BEC0048656C6C6F204920616D207461736B318A
:102BFC000048656C6C6F204920616D207461736BAB
:022C0C00320094
:00000001FF
