:100000000C942A000C94A0040C94C9040C94F204DF
:100010000C9447000C9447000C9447000C94470044
:100020000C9447000C94B0050C9447000C943705D1
:100030000C9447000C9447000C9447000C94470024
:100040000C9447000C9447000C9447000C94470014
:100050000C94470011241FBECFE5D8E0DEBFCDBF12
:1000600010E0A0E6B0E0E2ECFEE002C005900D92E8
:10007000AA37B107D9F720E0AAE7B0E001C01D9286
:10008000A838B207E1F70E94FE050C945F070C94B4
:1000900000006FEF80E00E94EB0341E067E080E04A
:1000A0000C947A038A3008F00895E82FF0E0EA59BA
:1000B000FF4F608180E00C94DB0341E067E080E06B
:1000C0000C94340340E067E080E00C943403CF9359
:1000D000DF93C3E6D0E0699141E083E00E947A03B8
:1000E000FE0141E0629183E00E94340380E0C63665
:1000F000D80789F7C0E6D0E0699140E083E00E942C
:100100007A03FE0141E0629183E00E94340380E0C3
:10011000C336D80789F7DF91CF910895AF92BF9288
:10012000CF92DF92EF92FF920F931F93CF93DF93C3
:10013000CDB7DEB72A970FB6F894DEBF0FBECDBF9E
:1001400089E0E0E7F0E0DE01119601900D928A95DA
:10015000E1F781E08A8743E6A42E40E0B42EC12C6B
:10016000D12C40E0F501608183E00E94340330E649
:10017000E32E30E0F32E00E010E0F70161917F0103
:10018000AE01465F5F4F83E00E94C0038A85811500
:1001900041F10F5F1F4F0330110579F7FFEFAF1AE1
:1001A000BF0AF50141E0629183E00E9434038FEFC2
:1001B000C81AD80A93E0C916D10499F6F12C8F2DEC
:1001C0002A960FB6F894DEBF0FBECDBFDF91CF9158
:1001D0001F910F91FF90EF90DF90CF90BF90AF9065
:1001E00008958FE59AEE0197F1F700C00000AE0187
:1001F000465F5F4FF701629183E00E94C0038A85EA
:100200008111C7CFC801880F991F800F911FFE0170
:100210003196E80FF91FEC0DFD1DF080005A1F4FBD
:10022000AE01465F5F4FF801608183E00E94C0032A
:100230008A858115A9F3F601ED59FF4F41E06081F0
:1002400083E00E943403BBCFCF93DF930F92CDB7EF
:10025000DEB7898341E061E082E00E943403698176
:1002600081E00E94DB0341E060E082E00E94340311
:100270008FE99FE00197F1F700C0000040E060E0E7
:1002800082E00E9434038FE99FE00197F1F700C0FC
:1002900000000F90DF91CF910895CF93DF930F92DD
:1002A000CDB7DEB7898340E061E082E00E9434038D
:1002B000698181E00E94DB0341E060E082E00E940E
:1002C00034038FE99FE00197F1F700C0000040E0A0
:1002D00060E082E00E9434038FE99FE00197F1F72C
:1002E00000C000000F90DF91CF91089561E081E0A0
:1002F0000E94EB0341E060E082E00E947A0341E06B
:1003000061E082E00E947A038FE39CE90197F1F7B4
:1003100000C0000088E30E944D018FE097E2019742
:10032000F1F700C0000088E30E944D018FE097E2E2
:100330000197F1F700C0000088E30E944D018FE0B3
:1003400097E20197F1F700C0000088E00E944D019C
:100350008FE097E20197F1F700C0000081E00E9472
:100360004D018FE097E20197F1F700C0000086E0B1
:100370000E944D018FE097E20197F1F700C0000065
:100380008CE00E944D018FE097E20197F1F700C0E9
:1003900000000895CF93DF93EC01892B49F0888109
:1003A000811531F021960E94240189918111FBCFA2
:1003B000DF91CF9108954F925F926F927F928F92CB
:1003C0009F92AF92BF92CF92DF92EF92FF920F93E4
:1003D0001F93CF93DF93CDB7DEB72A970FB6F8946C
:1003E000DEBF0FBECDBF6B017C01C114D104E1049F
:1003F000F1040CF445C009F44FC04E018FEF881A88
:10040000980A540100E010E038018AE0482E512C8F
:10041000B601C7019201A3010E942306605DF501A8
:1004200061935F0169017A01C8010F5F1F4FC11419
:10043000D104E104F10461F784010F5F1F4F080F3D
:10044000191FF80182918F010E94240108151905D6
:10045000C1F72A960FB6F894DEBF0FBECDBFDF916D
:10046000CF911F910F91FF90EF90DF90CF90BF90B1
:10047000AF909F908F907F906F905F904F90089576
:100480008DE20E942401F094E094D094C094C11CA9
:10049000D11CE11CF11CB1CF80E32A960FB6F89471
:1004A000DEBF0FBECDBFDF91CF911F910F91FF90A7
:1004B000EF90DF90CF90BF90AF909F908F907F9004
:1004C0006F905F904F900C94240191E0611101C0F6
:1004D00090E09295990F990F907C890F80680C9409
:1004E0004D0181E00C944D0182E00C944D010F937D
:1004F0001F93CF93DF9300D000D00F92CDB7DEB71C
:1005000089836C837D834A832B83672B11F088302A
:1005100050F00F900F900F900F900F90DF91CF91B0
:100520001F910F910895880F880F880F80640E9493
:100530004D010C811D81085F1F4FEC81FD81819170
:10054000EC83FD830E9424018C819D81801791079B
:10055000A1F781E09B819115A9F08295880F880F02
:10056000807CEA818E0F80680E944D0189810F9006
:100570000F900F900F900F90DF91CF911F910F91DF
:100580000C94240180E0E9CF80917A0090917B0067
:100590009C012F5F3F4F30937B0020937A0040E017
:1005A00080FF09C061E081E00E94340341E060E027
:1005B00081E00C94340360E081E00E94340341E068
:1005C00061E081E00C9434033E9A3F983D98359861
:1005D00086B1887F86B986B1866086B9379A0895D4
:1005E000379A089537980895813220F5611571057D
:1005F00021F197B1907E97B997B1982B97B9369A18
:10060000349BFECF349A3D9B0FC084B195B100243A
:10061000880F991F001C880F991F001C892F902D8F
:10062000FB0180839183089584B195B1FB018083A0
:100630009183089580E090E0089585E090E008952A
:1006400008950895BC0180E090E00E94640620E0D7
:1006500030E040EA50E40E94A10620E030E040E8AB
:100660005AE30E94A10608956830F0F4823049F1FF
:1006700070F48115D1F081E001C0880F6A95EAF726
:1006800098B34130A1F18095892388BB08958330C8
:1006900021F581E001C0880F6A95EAF792B34130F5
:1006A000E9F08095892382BB089581E001C0880F1D
:1006B0006A95EAF79BB34130B9F0809589238BBBEB
:1006C000089581E001C0880F6A95EAF795B341303B
:1006D00041F08095892385BB08950895892B82BBBD
:1006E0000895892B85BB0895892B8BBB0895892B91
:1006F00088BB08956830F0F4823049F170F48115B8
:10070000D1F081E001C0880F6A95EAF797B34130D4
:10071000A1F18095892387BB0895833021F581E07D
:1007200001C0880F6A95EAF791B34130E9F08095EE
:10073000892381BB089581E001C0880F6A95EAF79B
:100740009AB34130B9F0809589238ABB089581E03E
:1007500001C0880F6A95EAF794B3413041F0809563
:10076000892384BB08950895892B81BB0895892B23
:1007700084BB0895892B8ABB0895892B87BB089574
:10078000683098F48230A1F020F4811579F086B3B6
:1007900003C0833079F480B390E002C095958795CB
:1007A0006A95E2F78170FA018083089589B3F4CFE6
:1007B00083B3F2CF0895823049F020F4811541F0DF
:1007C00068BB0895833031F462BB089565BB08951A
:1007D0006BBB08950895823049F020F4811541F0F3
:1007E00067BB0895833031F461BB089564BB0895FD
:1007F0006ABB08950895823069F030F4811571F074
:1008000086B3FB0180830895833061F480B3FB01DC
:100810008083089583B3FB018083089589B3FB012E
:100820008083089508958130910569F082309105A3
:1008300031F0892B39F48BB780648BBF08958BB767
:1008400080628BBF08958BB780688BBF08950F932C
:100850001F93CF938C01C62F6430F8F4823091053A
:1008600001F1019798F1C9F440E063E083E00E9450
:100870007A0341E063E083E00E94340385B7CC0F44
:10088000CC0F837FC82BC5BFC8010E9413040FB6CD
:1008900007FC03C08FB780688FBFCF911F910F9166
:1008A00008956230D0F740E062E081E00E947A0370
:1008B00041E062E081E00E94340384B7C295CC0F2E
:1008C000CC0FC07C8F7BC82BC4BFDECF40E062E082
:1008D00083E00E947A0341E062E083E00E943403F7
:1008E00085B78C7F8C2B85BFCFCF8130910569F088
:1008F0008230910531F0892B39F48BB78F7B8BBF18
:1009000008958BB78F7D8BBF08958BB78F778BBF83
:1009100008958130910579F08230910539F0892B65
:1009200049F46093800070938100089560937C0087
:1009300070937D00089560937E0070937F0008950A
:100940001F920F920FB60F9211242F933F934F9344
:100950005F936F937F938F939F93AF93BF93EF9327
:10096000FF93E0918000F0918100309709F00995A4
:10097000FF91EF91BF91AF919F918F917F916F9177
:100980005F914F913F912F910F900FBE0F901F904D
:1009900018951F920F920FB60F9211242F933F9329
:1009A0004F935F936F937F938F939F93AF93BF9377
:1009B000EF93FF93E0917E00F0917F00309709F074
:1009C0000995FF91EF91BF91AF919F918F917F9189
:1009D0006F915F914F913F912F910F900FBE0F90AC
:1009E0001F9018951F920F920FB60F9211242F93FC
:1009F0003F934F935F936F937F938F939F93AF93A7
:100A0000BF93EF93FF93E0917C00F0917D003097CE
:100A100009F00995FF91EF91BF91AF919F918F914F
:100A20007F916F915F914F913F912F910F900FBEEA
:100A30000F901F90189583B7877899B7916099BFE9
:100A4000816083BF8FB780688FBF81E008959093E6
:100A50008300809382008091820090918300892B93
:100A6000D1F781E008958CBF81E0089508958F93B8
:100A70008FB78F939F93809182009091830000970E
:100A800049F08091820090918300019790938300B8
:100A9000809382009F918F918FBF8F9118959EB503
:100AA0006770987F692B6EBD8C3059F1A8F4811561
:100AB00071F18A3021F58FB58E7F8FBD8FB5826041
:100AC0008FBD8EB5877F8EBD8EB580618EBD89B797
:100AD000846089BF81E008958E3089F48FB58E7F60
:100AE0008FBD8FB582608FBD8EB588608EBD8EB58F
:100AF00080618EBD89B7846089BF81E0089580E000
:100B000008958FB58E7F8FBD8FB58D7FECCF8FB55C
:100B10008E7F8FBD8FB58D7F8FBD8EB5877F8EBD4C
:100B20008EB58F7E8EBD87E19CEF9DBD8CBD89B754
:100B3000846089BF81E0089581E00895613039F0D3
:100B400010F080E0089599BD88BD81E008959BBDB7
:100B50008ABD81E008958093840090938500089574
:100B60001F920F920FB60F9211242F933F934F9322
:100B70005F936F937F938F939F93AF93BF93EF9305
:100B8000FF9387E19CEF9DBD8CBD80918600909185
:100B9000870001969093870080938600809186005D
:100BA00090918700883E934089F0FF91EF91BF912B
:100BB000AF919F918F917F916F915F914F913F91F5
:100BC0002F910F900FBE0F901F90189510928700D5
:100BD00010928600E0918400F0918500309729F30F
:100BE0000995E3CF8EB58F7E8EBD8EB580618EBDAB
:100BF00081E0089597BD86BD81E0089541E060E001
:100C000081E00E947A0341E061E081E00E947A0382
:100C100040E060E081E00E94340341E061E081E077
:100C20000E94340364EC72E080E090E00E9489044A
:100C300063E080E090E00E94270441E062E083E00E
:100C40000E943403FFCF052E97FB1EF400940E94F0
:100C50003A0657FD07D00E94420607FC03D04EF427
:100C60000C943A0650954095309521953F4F4F4F43
:100C70005F4F089590958095709561957F4F8F4F48
:100C80009F4F0895A1E21A2EAA1BBB1BFD010DC0A8
:100C9000AA1FBB1FEE1FFF1FA217B307E407F5072C
:100CA00020F0A21BB30BE40BF50B661F771F881F08
:100CB000991F1A9469F760957095809590959B019E
:100CC000AC01BD01CF010895E89409C097FB3EF443
:100CD00090958095709561957F4F8F4F9F4F992389
:100CE000A9F0F92F96E9BB279395F6958795779507
:100CF0006795B795F111F8CFFAF4BB0F11F460FFC7
:100D00001BC06F5F7F4F8F4F9F4F16C0882311F01E
:100D100096E911C0772321F09EE8872F762F05C032
:100D2000662371F096E8862F70E060E02AF09A95CD
:100D3000660F771F881FDAF7880F9695879597F9C2
:100D400008950E94B4060C9425070E94170738F0F6
:100D50000E941E0720F0952311F00C940E070C94AE
:100D6000140711240C9459070E94360770F3959FBD
:100D7000C1F3950F50E0551F629FF001729FBB2792
:100D8000F00DB11D639FAA27F00DB11DAA1F649F2E
:100D90006627B00DA11D661F829F2227B00DA11DE1
:100DA000621F739FB00DA11D621F839FA00D611D67
:100DB000221F749F3327A00D611D231F849F600D88
:100DC000211D822F762F6A2F11249F5750409AF0B1
:100DD000F1F088234AF0EE0FFF1FBB1F661F771F3D
:100DE000881F91505040A9F79E3F510580F00C9408
:100DF0000E070C9459075F3FE4F3983ED4F38695B1
:100E000077956795B795F795E7959F5FC1F7FE2BA7
:100E1000880F911D9695879597F9089597F99F6783
:100E200080E870E060E008959FEF80EC0895002472
:100E30000A941616170618060906089500240A943F
:100E400012161306140605060895092E0394000CC5
:100E500011F4882352F0BB0F40F4BF2B11F460FF54
:100E600004C06F5F7F4F8F4F9F4F089557FD90587D
:100E7000440F551F59F05F3F71F04795880F97FB5E
:100E8000991F61F09F3F79F0879508951216130618
:100E90001406551FF2CF4695F1DF08C01616170647
:100EA0001806991FF1CF869571056105089408957C
:100EB000E894BB2766277727CB0197F90895F89424
:020EC000FFCF62
:100EC200000102040506C0F9A4B0999282F880904C
:0A0ED2003132333435363738390039
:00000001FF
