:100000000C942A000C9434000C9434000C943400AA
:100010000C9434000C9434000C9434000C94340090
:100020000C9434000C9434000C9434000C94340080
:100030000C9434000C9434000C9434000C94340070
:100040000C9434000C9434000C9434000C94340060
:100050000C94340011241FBECFE5D8E0DEBFCDBF25
:100060000E9415010C9420010C9400006830F0F4FB
:10007000823049F170F48115D1F081E001C0880F20
:100080006A95EAF798B34130A1F18095892388BB3E
:100090000895833021F581E001C0880F6A95EAF761
:1000A00092B34130E9F08095892382BB089581E0C5
:1000B00001C0880F6A95EAF79BB34130B9F080958B
:1000C00089238BBB089581E001C0880F6A95EAF708
:1000D00095B3413041F08095892385BB08950895FB
:1000E000892B82BB0895892B85BB0895892B8BBBF7
:1000F0000895892B88BB08956830F0F4823049F167
:1001000070F48115D1F081E001C0880F6A95EAF79B
:1001100097B34130A1F18095892387BB089583303F
:1001200021F581E001C0880F6A95EAF791B341306B
:10013000E9F08095892381BB089581E001C0880F93
:100140006A95EAF79AB34130B9F0809589238ABB62
:10015000089581E001C0880F6A95EAF794B34130B1
:1001600041F08095892384BB08950895892B81BB34
:100170000895892B84BB0895892B8ABB0895892B08
:1001800087BB0895683098F48230A1F020F481157F
:1001900079F086B303C0833079F480B390E002C075
:1001A000959587956A95E2F78170FA0180830895A5
:1001B00089B3F4CF83B3F2CF0895823049F020F4AD
:1001C000811541F068BB0895833031F462BB089516
:1001D00065BB08956BBB08950895823049F020F403
:1001E000811541F067BB0895833031F461BB0895F8
:1001F00064BB08956ABB08950895823069F030F4B5
:10020000811571F086B3FB0180830895833061F41A
:1002100080B3FB018083089583B3FB01808308953D
:1002200089B3FB0180830895089541E060E081E097
:100230000E947C0041E060E081E00E943600FFCF38
:04024000F894FFCF60
:00000001FF
